:020000040800F2
:10000000484900209D010008010B0008030B00086F
:10001000070B00080B0B00080F0B00080000000086
:10002000000000000000000000000000AF01000818
:10003000130B000800000000B3010008150B0008B6
:10004000B7010008B7010008B7010008B7010008B0
:10005000B7010008B7010008B7010008B7010008A0
:10006000B7010008B7010008B7010008B701000890
:10007000B7010008B7010008B7010008B701000880
:10008000B7010008B7010008B7010008B701000870
:10009000B7010008B7010008B7010008B701000860
:1000A000B7010008B7010008B7010008B701000850
:1000B000B7010008B7010008B7010008B701000840
:1000C000B7010008B7010008B7010008B701000830
:1000D000B7010008B7010008B7010008B701000820
:1000E000B7010008B7010008B7010008DFF810D019
:1000F00001F0C4FE00480047B30A0008AFF30080D7
:1001000048490020224B19680868B0E8F00F80F3D6
:100110000988BFF36F8F4FF0000080F311884EF015
:100120000D0E70470000000006480068006880F36C
:10013000088862B661B6BFF34F8FBFF36F8F00DFE1
:1001400000BF00BF08ED00E0EFF30980BFF36F8F41
:100150000F4B1A6820E9F00F106008B54FF0BF0090
:1001600080F31188BFF34F8FBFF36F8F01F02FFA29
:100170004FF0000080F31188BDE808401968086856
:10018000B0E8F00F80F30988BFF36F8F704700BFAE
:1001900044000020EFF305807047000006488047C8
:1001A00006480047FEE7FEE7FEE7FEE7FEE7FEE75C
:1001B000FEE7FEE7FEE7FEE79F020008ED0000080D
:1001C0000CB50020019000906C48006840F480302D
:1001D0006A49086000BF6948006800F40030009078
:1001E0000198401C0190009818B90198B0F5A06FD3
:1001F000F1D16248006800F4003010B10120009095
:1002000001E0002000900098012843D15C4800687C
:1002100040F010005A4908600846006820F00300CA
:1002200008600846006840F00200086053484068D3
:10023000524948600846406848600846406840F4B3
:10024000806048600846406820F47C10486008469A
:10025000406840F4E81048600846006840F080704C
:10026000086000BF4548006800F000700028F9D021
:100270004248406820F00300404948600846406812
:1002800040F00200486000BF3C48406800F00C00AD
:100290000828F9D10CBD10B5FFF792FF10BD10B5BD
:1002A0003648006840F0010034490860084640685C
:1002B00034490840314948600846006832490840DE
:1002C0002E4908600846006820F48020086008462F
:1002D000406820F4FE0048604FF41F008860FFF77C
:1002E000DAFF4FF000602949086010BD10B5002109
:1002F00000200022214B5B6803F00C0121B104298E
:1003000006D0082928D107E0214B224C236027E0A2
:100310001F4B204C236023E0184B5B6803F47010E4
:10032000164B5B6803F48032022303EB904022B942
:10033000194B4343174C23600DE0104B5B6803F4EB
:10034000003323B1144B4343124C236003E0104BA2
:100350004343104C236003E00D4B0E4C236000BF61
:1003600000BF064B5B68C3F303130C4CE15C094B05
:100370001B68CB40074C236010BD000000100240FA
:10038000002002400000FFF8FFFFF6FE08ED00E04D
:1003900000127A000000002000093D000400002047
:1003A00010B50446CC48844208D10121042000F055
:1003B0002DFB0021042000F029FB46E0C7488442C1
:1003C00008D10121082000F021FB0021082000F0C5
:1003D0001DFB3AE0C248844208D10121102000F000
:1003E00015FB0021102000F011FB2EE0BD488442D7
:1003F00008D10121202000F009FB0021202000F07D
:1004000005FB22E0B848844208D10121402000F0D9
:10041000FDFA0021402000F0F9FA16E0B3488442CA
:1004200008D10121802000F0F1FA0021802000F0A5
:10043000EDFA0AE0AE48844207D10121801500F0B0
:10044000E5FA0021A01500F0E1FA10BD10B5012178
:10045000084600F0DBFA0021012000F0D7FA10BDB9
:100460002DE9F0410246002500260020002300244B
:10047000002791F803C00CF00F0591F803C00CF0B1
:10048000100CBCF1000F03D091F802C04CEA050536
:1004900091F800C0BCF1000F31D0146800202BE0AF
:1004A0004FF0010C0CFA00F3B1F800C00CEA03069F
:1004B0009E4220D183004FF00F0C0CFA03F7BC438F
:1004C00005FA03FC4CEA040491F803C0BCF1280FC0
:1004D00006D14FF0010C0CFA00FCC2F814C00AE07F
:1004E00091F803C0BCF1480F05D14FF0010C0CFA94
:1004F00000FCC2F810C0401C0828D1D31460B1F829
:1005000000C0BCF1FF0F34DD546800202EE000F184
:10051000080C4FF0010808FA0CF3B1F800C00CEA1F
:1005200003069E4221D183004FF00F0C0CFA03F713
:10053000BC4305FA03FC4CEA040491F803C0BCF187
:10054000280F05D100F1080C08FA0CF8C2F8148045
:1005500091F803C0BCF1480F07D100F1080C4FF02F
:10056000010808FA0CF8C2F81080401C0828CED305
:100570005460BDE8F0814FF6FF7101800221817067
:100580000421C17070470246002093680B400BB1F4
:10059000012000E0002070470146886880B2704763
:1005A00002460020D3680B400BB1012000E0002080
:1005B00070470146C86880B2704701617047416169
:1005C00070470AB1016100E041617047C160704746
:1005D0004FF480320A43826181618261826982695B
:1005E000704702460020434B18684FF6807318404E
:1005F00040EA021008433F4B186070473E49C8610B
:100600007047F0B50A46002300240021002500F0C1
:100610000046B6F1004F02D1364EF16901E0354E89
:100620007168C0F3034583B200F44016B6F5401F6D
:1006300008D121F070612F4E766826F070662D4F3C
:100640007E6012E000F48016B6F5801F06D1032606
:1006500006FA05F4A14341F0706106E0460D36014B
:1006600003FA06F6B14341F0706122B1460D36013E
:1006700003FA06F6314300F00046B6F1004F02D10E
:100680001C4EF16101E01B4E7160F0BD30B50022DF
:100690008B071C0F0F2303FA04F2164B08338C1040
:1006A00053F824309343134C08348D1044F825300C
:1006B00023468C1053F824308C07240F00FA04F4DE
:1006C00023430C4C08348D1044F8253030BD0A49C2
:1006D000DC3108607047000000080140000C014058
:1006E000001001400014014000180140001C0140AE
:1006F000002001400000014000002042DF48006867
:1007000040F00100DD49086008464068DC490840C7
:10071000DA49486008460068DA490840D749086065
:100720000846006820F4802008600846406820F4ED
:10073000FE0048604FF41F0088607047CF49096889
:1007400021F48031CD4A11601146096821F48021DD
:100750001160B0F5803F03D0B0F5802F0ED106E0D8
:10076000C649096841F48031C44A116007E0C349B1
:10077000096841F4A021C14A116000E000BF00BF38
:10078000704710B501460022002300204A11012ABB
:1007900002D1BA4C236806E0022A02D1B74C236A80
:1007A00001E0B64C636A01F01F02012494401C4032
:1007B0000CB1012000E0002010BD38B500200090F1
:1007C0000024002500BF3120FFF7DBFF054600981D
:1007D000401C00900098B0F5A06F01D0002DF2D021
:1007E0003120FFF7CEFF08B1012400E000242046AD
:1007F00038BD01460020A14A106820F0F80040EA08
:10080000C10010607047A049086070470246002090
:100810009A4B586820F47C1042EA01031843974B26
:100820005860704798490866704701460020934A0F
:10083000506820F003000843506070478F484068BC
:1008400000F00C007047014600208C4A506820F0F0
:10085000F00008435060704701460020874A506806
:1008600020F4E06008435060704701460020834A4E
:10087000506820F4605040EAC1005060704729B1D0
:100880007E4A527A02437D4B5A7204E07B4A527A86
:1008900082437A4B5A7270477B49D831086070475F
:1008A00001460020754A506820F4404008435060DB
:1008B00070470021714A20321170704A82F820106E
:1008C000012802D004280AD104E001216B4A203219
:1008D000117005E00521694A2032117000E000BF67
:1008E00000BF70476949086070476449096A01435D
:1008F000624A11627047654944390860704730B5F3
:1009000000210022002400235C4D6D6805F00C01DD
:1009100021B1042905D0082923D105E05C4D0560EB
:1009200022E05B4D05601FE0544D6D6805F47012C8
:10093000524D6D6805F48034022505EB92421CB9D6
:10094000544D554305600BE04C4D6D6805F4003582
:100950001DB1504D5543056002E04D4D55430560B6
:1009600002E04B4D056000BF00BF444D6D6805F0CF
:10097000F0010909484D6B5C0568DD4045603F4D5D
:100980006D6805F4E061090A434D6B5C4568DD4024
:1009900085603A4D6D6805F46051C90A3E4D6B5C47
:1009A0004568DD40C560354D6D6805F44041890BF3
:1009B0003A4D6B5CC568B5FBF3F5056130BD29B1F7
:1009C0002E4A526902432D4B5A6104E02B4A526968
:1009D00082432A4B5A61704729B1284A92690243DF
:1009E000264B9A6104E0254A92698243234B9A611F
:1009F000704729B1214AD2690243204BDA6104E0F1
:100A00001E4AD26982431D4BDA61704729B11B4AE5
:100A1000D2680243194BDA6004E0184AD268824374
:100A2000164BDA60704729B1144A12690243134B1E
:100A30001A6104E0114A12698243104B1A6170472F
:100A400012494039086070470F49C86470470B4924
:100A5000C87170470948406A40F080700749486291
:100A6000704701460020054A92680A400AB10120F9
:100A700000E0002070470149887270470010024072
:100A80000000FFF8FFFFF6FE0000424280044242F1
:100A900000127A0000093D0014000020240000200C
:100AA00001B502E00098401E009000980028F9D19E
:100AB00008BD00F033F81DE002200F4908600F4820
:100AC000FFF7EEFF02200C49091F08600420091DF2
:100AD00008600A48FFF7E4FF04200749091F08607F
:100AE0000820091D08600548FFF7DAFF08200249C1
:100AF000091F0860E0E7000014080140FFFF0F0035
:100B0000704700BFFEE700BFFEE700BFFEE700BF83
:100B1000FEE7704710B500F085F810BD08B501215B
:100B20000420FFF759FF0220ADF8000010208DF8D7
:100B3000030003208DF8020069460F48FFF790FC80
:100B40000420ADF8000069460B48FFF789FC082037
:100B5000ADF8000069460848FFF782FC022106480C
:100B6000FFF72BFD04210448FFF727FD0821024869
:100B7000FFF723FD08BD00000008014000BFBF20B3
:100B800080F31188BFF34F8FBFF36F8F00BF00BF9B
:100B9000FEE7001F4FF080730360001F21F0010388
:100BA0000360001F2B4B036014380260203870472D
:100BB00029484FF0E021486107200861704710B5CF
:100BC0002648006840F47F00244908600846006811
:100BD00040F07F400860FFF7EBFF002020490860ED
:100BE000FFF7A2FA002010BD704700BFBF2080F3BE
:100BF0001188BFF34F8FBFF36F8F00BF1848006895
:100C0000401C17490860704715480068401E144989
:100C100008600846006820B9002080F3118800BFF2
:100C200000BF704710B500BFBF2080F31188BFF32D
:100C30004F8FBFF36F8F00BF00F09FFA20B14FF0CE
:100C4000805006491C39086000BF002080F31188DD
:100C500000BF10BD7D0B00083F19010020ED00E032
:100C60002800002010B50146714800E000680368C4
:100C70008B42FBD30246436813448B4204D1436842
:100C80004C682344436001460A464B681344046899
:100C9000A34211D1674C03682468A34208D04B6873
:100CA0000468646823444B6003681B680B6005E0BC
:100CB000604B1B680B6001E003680B60884200D04A
:100CC000016010BD30B54FF488435B4800F0070465
:100CD0002CB1C01D20F00700574C041B1B1B024603
:100CE000534C22600024524D6C60D018083820F01C
:100CF0000700504C206000244E4D2D686C604D4D17
:100D00002D682C601146441A4C604A4C24680C60D3
:100D10004A4D4C682C604A4D4C682C604FF00044A2
:100D2000484D2C6030BD2DE9F04105464FF00008DC
:100D300000F066FB3F48006808B9FFF7C3FF414871
:100D400000682840002847D145B1083505F0070064
:100D500020B105F00700C0F108000544002D3BD08C
:100D600037480068854237D8314E3046046801E084
:100D7000264624686068A84202D220680028F7D17D
:100D80002C480068844227D0306800F108082068A9
:100D900030606068401B102807D967196068401BE5
:100DA000786065603846FFF75DFF2549606809682F
:100DB000081A2349086008460068204909688842E3
:100DC00003D21F4800681D4908601E496068096811
:100DD000084360600020206000F046FA4046BDE80D
:100DE000F08170B506463546D6B1083D2C4615490A
:100DF00060680968084098B1206888B9114960683E
:100E000009688843606000F0FBFA0D496068096872
:100E100008440B4908602046FFF724FF00F024FA3D
:100E200070BD074800687047044800687047704705
:100E30002C00002034000020800000203C00002016
:100E4000380000204000002000F1080141604FF010
:100E5000FF31816000F10801C16001610021016082
:100E6000704700210161704742684A6093688B6057
:100E7000936859609160086103685B1C0360704768
:100E800010B502460B685C1C0CB9106907E002F152
:100E9000080000E04068446824689C42FAD944682D
:100EA0004C604C68A160886041600A611468641CF1
:100EB000146010BD01460A69D1E901309860D1E99A
:100EC000010358605068884201D188685060002052
:100ED00008611068401E10601068704710B500244B
:100EE00007E004EB8401FE4A02EB8100FFF7ACFF50
:100EF000641C052CF5D3FB48FFF7A6FFFA48FFF763
:100F0000A3FFFA48FFF7A0FFF948FFF79DFFF94854
:100F1000FFF79AFFF348F8490860F348F74908607B
:100F200010BD10B50446FFF760FEF5480068401C90
:100F3000F3490860F348006840B9F2480460084685
:100F4000006801280DD1FFF7C9FF0AE0EE480068EC
:100F500038B9EC480068C06AE16A884201D8E948BB
:100F60000460EA480068401CE849086094F82C10C6
:100F700001208840E64909680843E5490860E16ABC
:100F800001EB8101D64A02EB8100211DFFF76CFFC6
:100F9000FFF73AFEDC48006868B1DA480068C06ACA
:100FA000E16A884207D24FF08050DA490860BFF307
:100FB0004F8FBFF36F8F10BD2DE9FF5F80460E4648
:100FC0009146DDE90E7A109CA9F10100216B01EB3D
:100FD000800B2BF0070B002507E0715D04F1340056
:100FE0004155705D00B902E06D1C102DF5D300BFB6
:100FF000002143200155052F00D30427E762201D5F
:10100000FFF72FFF04F11800FFF72BFF2461C7F152
:101010000500A06164620020606484F848004146D5
:101020005846039AFFF7B5FD2060BAF1000F01D0D2
:10103000CAF80040BDE8FF9F2DE9FF4F85B080460C
:1010400089461746DDE912ABB800FFF76CFE06468D
:1010500056B14C20FFF767FE04460CB1266304E04E
:101060003046FFF7BEFE00E000247CB10020CDE951
:1010700000ABCDE902403A4649464046089BFFF79F
:101080009BFF2046FFF74DFF012501E04FF0FF35A4
:10109000284609B0BDE8F08F97490968096809B981
:1010A000012100E0002121B14FF0FF319A4A116087
:1010B00006E091490968C968C868974A41681160A3
:1010C000704710B50446206BFFF78BFE2046FFF7F4
:1010D00088FE10BD70B50546FFF787FD15B9894834
:1010E000006800E028460446201DFFF7E3FE78B9BB
:1010F000E06A00EB80007A4951F8200040B994F88A
:101100002C10012088408249096881438048016091
:10111000A06A18B104F11800FFF7CCFE7B48006804
:10112000401C7A49086077480068844209D1211D33
:101130006F48FFF799FE79480068401C77490860BE
:1011400009E06F480068401E6D4908602046FFF7BF
:10115000B8FFFFF7A1FFFFF757FD6B48006858B1D4
:1011600068480068844207D14FF0805069490860A0
:10117000BFF34F8FBFF36F8F70BD2DE9F041002794
:1011800067480068002863D166480068451C6548C8
:1011900005608DB95848D0F8008058480068564915
:1011A00008605648C0F800805F480068401C5E49EF
:1011B0000860FFF771FF00BF5748006885423BD3C6
:1011C00000BF4D480068006808B9012000E0002019
:1011D00020B14FF0FF30504908602CE046480068CD
:1011E000C068C4686668B54202D24B48066022E017
:1011F000201DFFF75FFEA06A18B104F11800FFF789
:1012000059FE94F82C100120884041490968084390
:101210003F490860E16A01EB8101314A02EB81003C
:10122000211DFFF721FE3749E06A0968C96A884233
:10123000C7D30127C5E700BF32480068C06A00EB8A
:101240008000274951F82000012800D9012704E037
:1012500036480068401C354908603548006800B1D0
:1012600001273846BDE8F08170B500240026FFF75D
:10127000BCFC2B480068401E2949086008460068ED
:1012800000287BD11E480068002877D024E017484A
:10129000C068C46804F11800FFF70CFE201DFFF7BA
:1012A00009FE94F82C100120884019490968084368
:1012B00017490860E16A01EB8101094A02EB8100EC
:1012C000211DFFF7D1FD0F49E06A0968C96A88420C
:1012D00002D30120164908600448006850BB2AE088
:1012E00080440020E4440020F84400200C45002005
:1012F0002045002034450020480000204C000020FC
:1013000054000020440000206000002070000020F5
:101310005C00002004ED00E074000020500000207C
:101320007C000020580000206C0000206400002099
:101330006800002001E0012000E000200028A6D085
:101340000CB1FFF7A9FEFD48056865B100BFFFF7C6
:1013500014FF10B10120FA4908606D1E002DF6D16E
:101360000020F6490860F648006838B101263007C9
:10137000F4490860BFF34F8FBFF36F8FFFF744FC52
:10138000304670BD2DE9F04105460E46EE4807682F
:10139000EE480068001DFFF78DFD50B9EB4800686E
:1013A00090F82C1001208840E94909688143E848F9
:1013B0000160681C38B936B1E4480168091DE54888
:1013C000FFF752FD1AE07C19E04800684460BC4217
:1013D00007D2DE480168091DDF480068FFF750FDAD
:1013E0000CE0DA480168091DDC480068FFF748FD99
:1013F000DB480068844201D2D9480460BDE8F0812E
:10140000D8480068401CD749086070472DE9F0476C
:10141000044688464FF00009FFF7F2FFCA48066805
:10142000206800EB08052068B04207D92068A84270
:101430000BD9B54209D94FF0010906E02068A8424E
:1014400001D8B54201D94FF001092560B9F1000F6B
:1014500003D0A81B0021FFF795FFFFF705FF074604
:101460003FB94FF08050B7490860BFF34F8FBFF3CB
:101470006F8FBDE8F08770B50446002544B1FFF7D3
:10148000BFFF00212046FFF77DFFFFF7EDFE054679
:101490003DB94FF08050AB490860BFF34F8FBFF3A9
:1014A0006F8F70BD70B50446FFF79FFB14B9A74856
:1014B000006800E020460646F56AFFF7A5FB2846CF
:1014C00070BD70B5024600BFBF25EFF3118485F3F0
:1014D0001188BFF34F8FBFF36F8F00BF214612B942
:1014E0009A4C246800E014462346D86A00BF81F372
:1014F000118800BF70BD2DE9F04780460D464FF0C2
:101500000009052D00D30425FFF76FFBB8F1000F8C
:1015100002D18E48006800E040460446E66AAE42CA
:1015200051D0B5420BD98948006884420DD0874814
:101530000068C06AA84208D84FF0010905E0834856
:101540000068844201D14FF00109E76AE562A069B1
:1015500000F0004010B9C5F10500A06107EB87015C
:10156000814A02EB81016069884201D1012000E0DB
:101570000020E0B1201DFFF79DFC30B90120B840EC
:101580007349096881437248016094F82C10012066
:1015900088406F49096808436D490860E16A01EBBA
:1015A0008101714A02EB8100211DFFF75DFCB9F159
:1015B000000F07D04FF0805062490860BFF34F8F93
:1015C000BFF36F8F00BFFFF71FFBBDE8F0876548D3
:1015D000006818B101205A4908601DE000205849F0
:1015E00008605B480068B0FA80F0C0F11F0101EBB1
:1015F00081025D4B03EB820042685268426000F159
:1016000008024368934202D14268526842604268CD
:10161000D2684E4B1A6000BF704770B50546FFF7A1
:10162000E4FA15B94948006800E028460446201D40
:10163000FFF740FC78B9E06A00EB80004A4951F8B6
:10164000200040B994F82C100120884040490968D6
:1016500081433F480160A06A18B104F11800FFF708
:1016600029FC211D3B48FFF7FFFBFFF7CDFA3F4860
:10167000006828B1FFF7B9FAFFF70EFDFFF7C4FACB
:1016800032480068844217D13848006840B14FF0B2
:1016900080502C490860BFF34F8FBFF36F8F0BE072
:1016A0002C48006832490968884203D10020274944
:1016B000086001E0FFF78BFF70BD10B50146002008
:1016C0000A46244C5369A34201D1012300E00023C0
:1016D00073B1284C936AA34201D1012300E0002397
:1016E00033B9936A0BB9012300E0002303B1012051
:1016F00010BD70B505462C46F4B31448006884420A
:101700004BD0FFF772FA2046FFF7D7FFA8B3201D92
:10171000FFF7D0FB94F82C10012088400C49096891
:1017200008430B490860E16A01EB81010E4A02EBB4
:101730008100211DFFF798FB04491FE06400002091
:101740006800002004ED00E0580000204400002064
:101750005C000020344500204C00002048000020A0
:10176000740000207C0000208044002060000020E5
:10177000540000200C4500200FE00CE0E06A0968EE
:10178000C96A884207D34FF08050FE490860BFF312
:101790004F8FBFF36F8FFFF737FA70BD2DE9F04120
:1017A00006460027344600BFBF21EFF3118081F3C6
:1017B0001188BFF34F8FBFF36F8F00BF05462046E0
:1017C000FFF77BFF20B3F0480068E0B9EF49E06A1B
:1017D0000968C96A884200D30127201DFFF76AFB08
:1017E00094F82C1001208840E94909680843E84929
:1017F0000860E16A01EB8101E64A02EB8100211DEC
:10180000FFF732FB04E004F11801E348FFF72CFB7B
:1018100000BF85F3118800BF3846BDE8F08170B580
:1018200023E0FFF7EDFDDD48006808B9012000E086
:1018300000200546FFF718FDBDB9FFF7D6F9D748D8
:10184000C068C468201DFFF735FBD5480068401EFE
:10185000D3490860D3480068401ED2490860FFF7AA
:10186000D3F92046FFF72DFC00BFCE4800680028C2
:10187000D7D170BD00BFFFF7D2FFC648006801286E
:10188000F9D94FF08050BF490860BFF34F8FBFF3C5
:101890006F8FF0E71CB5C44800210B468022CDE9CC
:1018A0000010C2A1C348FFF7C7FB0446012C14D1A6
:1018B00000BFBF2080F31188BFF34F8FBFF36F8F3E
:1018C00000BF4FF0FF30BC4908600120BB490860F1
:1018D0000020BB490860FFF772F91CBD10B500BFBE
:1018E000BF2080F31188BFF34F8FBFF36F8F00BF0E
:1018F0000020B2490860FFF777F910BDB0490868C9
:1019000070470021AE4A10687047A54800687047CC
:10191000014611B99D48006800E00846024602F100
:101920003400704770B505460C4698480168183178
:101930002846FFF7A5FA01212046FFF723FD70BDD9
:1019400070B506460C46154644F000408F490968BC
:1019500088618E48016818313046FFF785FA012109
:101960002846FFF70FFD70BD70B50646F068C468E5
:1019700004F11800FFF79EFA83480068A8B9201DFB
:10198000FFF798FA94F82C100120884080490968E4
:1019900008437F490860E16A01EB81017D4A02EB5F
:1019A0008100211DFFF760FA04E004F118017A4874
:1019B000FFF75AFA7549E06A0968C96A884204D98A
:1019C000012501207F49086000E00025284670BD00
:1019D0002DE9F04105460F4647F000402860EC68CD
:1019E0002846FFF767FA201DFFF764FA94F82C10D9
:1019F0000120884066490968084365490860E16A32
:101A000001EB8101634A02EB8100211DFFF72CFAF3
:101A10005E49E06A0968C96A884204D90126012042
:101A20006849086000E000263046BDE8F08166495C
:101A300009680160624909684160704770B50446F1
:101A40000D46FFF7D2F85E4802682868401C08B9C6
:101A5000002619E05C4920680968884204D0606863
:101A6000904201D801260FE06068101A2968884268
:101A700009D228686168511A401A28602046FFF789
:101A8000D6FF002600E00126FFF7BEF8304670BD05
:101A900001204C49086070473C49096888693B4906
:101AA0000968C96AC1F10501384A12689161704735
:101AB00070B506460D46FFF798F834480068406C4C
:101AC00088B901203149096881F848005DB10121D8
:101AD0002846FFF757FC4FF080502A490860BFF3B3
:101AE0004F8FBFF36F8FFFF78FF8FFF77EF8274810
:101AF0000068446C4CB126B1002024490968486450
:101B000003E0601E21490968486400201F490968F4
:101B100081F84800FFF778F8204670BD2DE9F041C4
:101B20000746884614461D46FFF75FF817480068C9
:101B300090F84800022818D01449096801F14400BF
:101B4000496CB943016001201049096881F84800D7
:101B50005DB101212846FFF715FC4FF0805009497F
:101B60000860BFF34F8FBFF36F8FFFF74DF8FFF79C
:101B70003CF81CB105480068406C206003480068D0
:101B800024E0000004ED00E07C0000204400002080
:101B90005C000020804400200C45002020450020EF
:101BA00054000020500000207800002049444C459B
:101BB000000000007518000874000020600000207C
:101BC00058000020680000206C00002090F84800B9
:101BD000012801D1002608E0A149096801F144006B
:101BE000496C21EA08010160012600209C4909682E
:101BF00081F84800FFF708F83046BDE8F0812DE98C
:101C0000F04781460D4616461F464FF0010A4C46E6
:101C1000FEF7EBFF0FB1606C386094F8488002204B
:101C200084F84800052E17D2DFE806F01503070BED
:101C30000D00606C284360640EE0606C401C6064C2
:101C40000AE0656408E0B8F1020F01D0656401E0C4
:101C50004FF0000A00E000BF00BFB8F1010F22D131
:101C6000201DFFF727F994F82C10012088407D49AA
:101C7000096808437B490860E16A01EB81017A4AFF
:101C800002EB8100211DFFF7EFF87549E06A096852
:101C9000C96A884207D94FF0805074490860BFF381
:101CA0004F8FBFF36F8FFEF7AFFF5046BDE8F08751
:101CB0002DE9F84F82460D4616461F46DDF828B03E
:101CC00001200090544600BFBF21EFF3118081F343
:101CD0001188BFF34F8FBFF36F8F00BF81460FB1E5
:101CE000606C386094F84880022084F84800052E23
:101CF00017D2DFE806F01503070B0D00606C2843D0
:101D000060640EE0606C401C60640AE0656408E09A
:101D1000B8F1020F01D0656401E00020009000E0FE
:101D200000BF00BFB8F1010F2DD151480068A8B91C
:101D3000201DFFF7BFF894F82C1001208840494976
:101D40000968084347490860E16A01EB8101464A96
:101D500002EB8100211DFFF787F804E004F1180170
:101D60004448FFF781F83E49E06A0968C96A884239
:101D700009D9BBF1000F03D00120CBF8000002E02D
:101D800001203D49086000BF89F3118800BF009819
:101D9000BDE8F88F2DE9F04105460E462C4600BF00
:101DA000BF21EFF3118081F31188BFF34F8FBFF391
:101DB0006F8F00BF074694F84880022084F84800DF
:101DC000606C401C6064B8F1010F2AD1284800689B
:101DD000A8B9201DFFF76EF894F82C100120884058
:101DE0002049096808431F490860E16A01EB810145
:101DF0001D4A02EB8100211DFFF736F804E004F1D3
:101E000018011C48FFF730F81549E06A0968C96AEB
:101E1000884206D916B10120306002E0012016493F
:101E2000086000BF87F3118800BFBDE8F08170B57E
:101E3000054615B90A48006800E028460646FEF740
:101E4000D4FE96F84800022804D1002086F8480005
:101E5000012400E00024FEF7D7FE204670BD0000FC
:101E6000440000205C0000208044002004ED00E0DD
:101E70007C0000200C45002068000020064C074D27
:101E800006E0E06840F0010394E80700984710344A
:101E9000AC42F6D3FEF72EF9C01E0008E01E000883
:101EA00002E008C8121F08C1002AFAD17047704723
:101EB000002001E001C1121F002AFBD17047000081
:101EC000E01E00080000002080000000A01E0008A6
:101ED000601F000880000020C8480000B01E0008F5
:101EE00000A24A04000000000000000001020304F8
:101EF00006070809000000000102030401020304B0
:101F00000607080902040608AAAAAAAA00000000F7
:101F100000000000000000000000000000000000C1
:101F200000000000000000000000000000000000B1
:101F300000000000000000000000000000000000A1
:101F40000000000000000000000000000000000091
:101F50000000000000000000000000000000000081
:04000005080000ED02
:00000001FF
