:020000040800F2
:10000000684900209D010008BD290008BF2900089B
:10001000C3290008C7290008CB29000800000000F8
:10002000000000000000000000000000AF01000818
:10003000CF29000800000000B3010008D129000802
:10004000B7010008B7010008B7010008B7010008B0
:10005000B7010008B7010008B7010008B7010008A0
:10006000B7010008B7010008B701000861290008BE
:10007000B7010008B7010008B7010008B701000880
:10008000B7010008B7010008B7010008B701000870
:10009000B7010008B7010008B7010008B701000860
:1000A000B7010008B7010008B7010008B701000850
:1000B00051310008B7010008B7010008B701000876
:1000C000B7010008B7010008B7010008B701000830
:1000D000B7010008B7010008B7010008B701000820
:1000E000B7010008B7010008B7010008DFF810D019
:1000F00004F00CFA0048004773290008AFF30080B1
:1001000068490020224B19680868B0E8F00F80F3B6
:100110000988BFF36F8F4FF0000080F311884EF015
:100120000D0E70470000000006480068006880F36C
:10013000088862B661B6BFF34F8FBFF36F8F00DFE1
:1001400000BF00BF08ED00E0EFF30980BFF36F8F41
:100150000F4B1A6820E9F00F106008B54FF0BF0090
:1001600080F31188BFF34F8FBFF36F8F03F061FDF2
:100170004FF0000080F31188BDE808401968086856
:10018000B0E8F00F80F30988BFF36F8F704700BFAE
:100190005C000020EFF305807047000006488047B0
:1001A00006480047FEE7FEE7FEE7FEE7FEE7FEE75C
:1001B000FEE7FEE7FEE7FEE79F020008ED0000080D
:1001C0000CB50020019000906C48006840F480302D
:1001D0006A49086000BF6948006800F40030009078
:1001E0000198401C0190009818B90198B0F5A06FD3
:1001F000F1D16248006800F4003010B10120009095
:1002000001E0002000900098012843D15C4800687C
:1002100040F010005A4908600846006820F00300CA
:1002200008600846006840F00200086053484068D3
:10023000524948600846406848600846406840F4B3
:10024000806048600846406820F47C10486008469A
:10025000406840F4E81048600846006840F080704C
:10026000086000BF4548006800F000700028F9D021
:100270004248406820F00300404948600846406812
:1002800040F00200486000BF3C48406800F00C00AD
:100290000828F9D10CBD10B5FFF792FF10BD10B5BD
:1002A0003648006840F0010034490860084640685C
:1002B00034490840314948600846006832490840DE
:1002C0002E4908600846006820F48020086008462F
:1002D000406820F4FE0048604FF41F008860FFF77C
:1002E000DAFF4FF000602949086010BD10B5002109
:1002F00000200022214B5B6803F00C0121B104298E
:1003000006D0082928D107E0214B224C236027E0A2
:100310001F4B204C236023E0184B5B6803F47010E4
:10032000164B5B6803F48032022303EB904022B942
:10033000194B4343174C23600DE0104B5B6803F4EB
:10034000003323B1144B4343124C236003E0104BA2
:100350004343104C236003E00D4B0E4C236000BF61
:1003600000BF064B5B68C3F303130C4CE15C094B05
:100370001B68CB40074C236010BD000000100240FA
:10038000002002400000FFF8FFFFF6FE08ED00E04D
:1003900000127A000000002000093D000400002047
:1003A00031490143314A1160704770B50021002383
:1003B0000F22C47804B32D4C246804F4E064C4F51F
:1003C000E064210AC1F10403CA40447804FA03F14D
:1003D0008478144021430901254C0678A1550478FE
:1003E00004F01F050124AC4005786D11AD0005F146
:1003F000E025C5F8004109E0047804F01F05012458
:10040000AC401C4D0678761145F8264070BD1A4A5E
:100410000A400243154B1B1F1A60704739B1134A3B
:10042000121D12680243114B1B1D1A6006E00F4A91
:10043000121D126882430D4B1B1D1A607047042861
:1004400008D14FF0E021096941F004014FF0E022AA
:10045000116107E04FF0E021096921F004014FF03C
:10046000E0221161704700000000FA050CED00E089
:1004700000E400E080E100E080FFFF1F10B50446CB
:10048000FA48844208D10121401501F081F8002189
:10049000601501F07DF817E0F548844208D101218C
:1004A000001501F075F80021201501F071F80BE03E
:1004B000F048844208D10121C80301F069F8002105
:1004C0004FF4004001F064F810BD30B50246002042
:1004D00000235068E84C20400D790C6844EA05245C
:1004E000204350609068E54C2040D1E902542C43F1
:1004F0004D7944EA450420439060D06A20F47000AE
:100500000C7C641EE4B2234340EA0350D06230BD49
:1005100000210160017141718160C160012101749C
:10052000704721B1826842F00102826003E0826874
:1005300022F001028260704721B1826842F4807229
:10054000826003E0826822F480728260704710B596
:100550000023CBB21AB144681C43446002E04468F3
:100560009C43446010BD816841F008018160704780
:10057000014600208A6802F008020AB1012000E06A
:1005800000207047816841F0040181607047014696
:1005900000208A6802F004020AB1012000E0002075
:1005A000704721B1826842F4A002826003E0826851
:1005B00022F4A00282607047014600208A6802F49B
:1005C00080020AB1012000E00020704710B50A4601
:1005D00000210023416821F46041531E41EA433168
:1005E000416010BD21B1426842F40062426003E004
:1005F000426822F4006242607047F0B504460D463E
:1006000000200021092D11DDE068A5F10A0606EBA6
:100610004607072606FA07F18843A5F10A0606EB06
:10062000460603FA06F10843E0600CE0206905EB9A
:100630004507072606FA07F1884305EB450603FA46
:1006400006F108432061072A0FDA606B561E06EB9D
:1006500086071F2606FA07F18843561E06EB860614
:1006600005FA06F10843606322E00D2A0FDA206BD9
:10067000D61F06EB86071F2606FA07F18843D61F0A
:1006800006EB860605FA06F10843206310E0E06AEF
:10069000A2F10D0606EB86071F2606FA07F188432E
:1006A000A2F10D0606EB860605FA06F10843E062A4
:1006B000F0BD21B1826842F48012826003E082685A
:1006C00022F48012826070470146C86C80B2704785
:1006D00066484C300068704721B1426842F480623D
:1006E000426003E0426822F480624260704721B1B8
:1006F000426842F48052426003E0426822F4805231
:10070000426070470A460021816821F4E0411143AC
:100710008160704721B1826842F40042826003E048
:10072000826822F400428260704721B1826842F4FC
:100730000212826003E0826822F402128260704733
:10074000014600208A6802F400120AB1012000E08C
:1007500000207047F0B50446154600200022002610
:10076000092911DDE068A1F10A0707EB470C07270B
:1007700007FA0CF29043A1F10A0707EB470703FAC7
:1007800007F21043E0600CE0206901EB410C072701
:1007900007FA0CF2904301EB410703FA07F210430A
:1007A0002061A06BC0F30156EF1C06F1010CA7EB12
:1007B0000C0707EB870C1F2707FA0CF29043EF1C7E
:1007C00006F1010CA7EB0C0707EB870701FA07F20C
:1007D0001043A063F0BD10B50A4600210023816BD1
:1007E00021F44011531E41EA0351816310BD08B545
:1007F000002300930090009B0B440093009B1A6021
:1008000008BD08B5024600200090009201F12800C2
:10081000009B184400900098006880B208BD0A460A
:1008200000214168164B19401143416070474162F5
:10083000826270470A460021416821F01F0111437E
:100840004160704740B109490831096841F400012D
:10085000064A0832116007E004490831096821F4AA
:100860000001024A08321160704700000024014074
:1008700000280140003C0140FFFEF0FFFDF7F1FFC2
:10088000FFFD3FFF0246002013680B400BB1012023
:1008900000E000207047CA430260704770B502460E
:1008A0000020002300240B125568CEB205EA06048E
:1008B00015681D4015B10CB1012000E0002070BD8D
:1008C00000220A12D34303607047000001684FF60C
:1008D000FE72114001600021016041608160C160D1
:1008E0008D49884208D18C490839496841F00F0187
:1008F000894A083A51608AE087491431884208D110
:1009000085490839496841F0F001834A083A516045
:100910007DE081492831884208D17F4908394968FA
:1009200041F470617C4A083A516070E07A493C3188
:10093000884208D178490839496841F47041764ABB
:10094000083A516063E074495031884208D17249D5
:100950000839496841F470216F4A083A516056E0FD
:100960006D496431884208D16B490839496841F4BE
:100970007001694A083A516049E067497831884214
:1009800008D165490839496841F07061624A083AFE
:1009900051603CE06149884206D1011F096841F07D
:1009A0000F01021F116032E05C491431884208D106
:1009B0005A49091F096841F0F001584A121F116095
:1009C00025E056492831884208D15449091F096851
:1009D00041F47061514A121F116018E04F493C31D7
:1009E000884208D14D49091F096841F470414B4ABA
:1009F000121F11600BE049495031884207D1474925
:100A0000091F096841F47021444A121F11607047A0
:100A100010B50022026847F6F0739A430C6A8B689F
:100A200023430C6923434C6923438C692343CC69DA
:100A300023434C6A23438C6A23431A430260CB68E6
:100A400043600B6883604B68C36010BD0021016088
:100A500041608160C160016141618161C161016288
:100A600041628162704721B1026842F00102026076
:100A700004E002684FF6FE731A40026070471AB134
:100A800003680B43036002E003688B430360704715
:100A9000416070470146486880B2704701460020B7
:100AA000002201F080531BB11C4B083B1A6802E086
:100AB000194B083B1A6802EA01030BB1012000E060
:100AC0000020704700F0805119B11449091F0860D7
:100AD00002E01149083948607047014600200022B1
:100AE00001F080531BB10D4B083B1A6802E00A4B22
:100AF000083B1A6802EA01030BB1012000E0002064
:100B0000704700F0805119B10449091F086002E0E4
:100B10000149083948607047080002400804024053
:100B200010B50446CC48844208D10121042000F0CD
:100B30002FFD0021042000F02BFD46E0C748844231
:100B400008D10121082000F023FD0021082000F039
:100B50001FFD3AE0C248844208D10121102000F074
:100B600017FD0021102000F013FD2EE0BD48844247
:100B700008D10121202000F00BFD0021202000F0F1
:100B800007FD22E0B848844208D10121402000F04E
:100B9000FFFC0021402000F0FBFC16E0B34884423B
:100BA00008D10121802000F0F3FC0021802000F01A
:100BB000EFFC0AE0AE48844207D10121801500F025
:100BC000E7FC0021A01500F0E3FC10BD10B50121E9
:100BD000084600F0DDFC0021012000F0D9FC10BD2A
:100BE0002DE9F041024600250026002000230024C4
:100BF000002791F803C00CF00F0591F803C00CF02A
:100C0000100CBCF1000F03D091F802C04CEA0505AE
:100C100091F800C0BCF1000F31D0146800202BE027
:100C20004FF0010C0CFA00F3B1F800C00CEA030617
:100C30009E4220D183004FF00F0C0CFA03F7BC4307
:100C400005FA03FC4CEA040491F803C0BCF1280F38
:100C500006D14FF0010C0CFA00FCC2F814C00AE0F7
:100C600091F803C0BCF1480F05D14FF0010C0CFA0C
:100C700000FCC2F810C0401C0828D1D31460B1F8A1
:100C800000C0BCF1FF0F34DD546800202EE000F1FD
:100C9000080C4FF0010808FA0CF3B1F800C00CEA98
:100CA00003069E4221D183004FF00F0C0CFA03F78C
:100CB000BC4305FA03FC4CEA040491F803C0BCF100
:100CC000280F05D100F1080C08FA0CF8C2F81480BE
:100CD00091F803C0BCF1480F07D100F1080C4FF0A8
:100CE000010808FA0CF8C2F81080401C0828CED37E
:100CF0005460BDE8F0814FF6FF71018002218170E0
:100D00000421C17070470246002093680B400BB16C
:100D1000012000E0002070470146886880B27047DB
:100D200002460020D3680B400BB1012000E00020F8
:100D300070470146C86880B27047016170474161E1
:100D400070470AB1016100E041617047C1607047BE
:100D50004FF480320A4382618161826182698269D3
:100D6000704702460020434B18684FF680731840C6
:100D700040EA021008433F4B186070473E49C86183
:100D80007047F0B50A46002300240021002500F03A
:100D90000046B6F1004F02D1364EF16901E0354E02
:100DA0007168C0F3034583B200F44016B6F5401FE6
:100DB00008D121F070612F4E766826F070662D4FB5
:100DC0007E6012E000F48016B6F5801F06D103267F
:100DD00006FA05F4A14341F0706106E0460D3601C4
:100DE00003FA06F6B14341F0706122B1460D3601B7
:100DF00003FA06F6314300F00046B6F1004F02D187
:100E00001C4EF16101E01B4E7160F0BD30B5002257
:100E10008B071C0F0F2303FA04F2164B08338C10B8
:100E200053F824309343134C08348D1044F8253084
:100E300023468C1053F824308C07240F00FA04F456
:100E400023430C4C08348D1044F8253030BD0A493A
:100E5000DC3108607047000000080140000C0140D0
:100E6000001001400014014000180140001C014026
:100E700000200140000001400000204210B504465F
:100E8000F748844209D10121480500F08EFB00217A
:100E90004FF4001000F089FB08E00121880500F004
:100EA00084FB00214FF4800000F07FFB10BD2DE992
:100EB000F04385B004460D460026B1460427DFF80E
:100EC000A483A6884FF6C0700640684600F0D9FAA1
:100ED000DDF80880E448B8FBF0F01FFA80F946EA34
:100EE0000906A68020884FF6FE7108402080002663
:100EF000DE49286888420CD828684000B8FBF0F02A
:100F000087B2042F00DA04273E4309F10100208450
:100F100027E0E8884BF6FF71884206D1286800EB8D
:100F20004000B8FBF0F087B209E0286800EBC00190
:100F300001EB0010B8FBF0F087B247F48047C7F32D
:100F40000B0008B947F0010747F4004006434FF48F
:100F5000967009FB00F04FF47A7190FBF1F0401CA1
:100F60002084A683208840F00100208026884FF648
:100F7000F5300640A8886989084306432680A88979
:100F800029890843208105B0BDE8F08341F288310A
:100F90000160002181804BF6FF71C1800021018139
:100FA00041814FF480418181704721B1028842F034
:100FB0000102028004E002884FF6FE731A400280AC
:100FC000704721B1828842F40062828004E0828806
:100FD0004FF2FF731A408280704721B1828842F439
:100FE0008052828004E082884EF6FF731A4082802D
:100FF000704721B1028842F48072028004E00288C6
:101000004FF6FF631A400280704721B1028842F414
:101010000072028004E002884FF6FF531A400280FB
:10102000704721B1028842F48062028004E00288A5
:101030004FF6FF331A40028070470A46002181892B
:101040004FF60173194002F0FE0319438181704786
:1010500021B1828942F00102828104E082894FF647
:10106000FE731A408281704721B1028842F040022B
:10107000028004E002884FF6BF731A400280704776
:101080001AB183880B43838002E083888B4383807B
:101090007047018270470146088AC0B2704712B19A
:1010A00041F0010102E04FF6FE73194001827047E2
:1010B00008B5024600200090009200980844009075
:1010C0000098008808BD21B1028842F400420280E5
:1010D00003E00288C2F30E0202807047B1F5006F90
:1010E00004D1028842F40062028004E002884FF2D8
:1010F000FF731A4002807047B1F5005F04D1028887
:1011000042F40052028004E002884DF6FF731A4058
:101110000280704721B1028842F48052028004E0CC
:1011200002884EF6FF731A4002807047B1F5006FD7
:1011300004D1028842F40062028004E002884FF287
:10114000FF731A400280704721B1028842F02002EA
:10115000028004E002884FF6DF731A400280704775
:101160000146088B0012704721B1028842F010023C
:10117000028004E002884FF6EF731A400280704745
:1011800021B9028842F08002028004E002884FF612
:101190007F731A4002807047B1F5804F05D0828B73
:1011A0004BF6FF731A40828303E0828B42F4804245
:1011B0008283704770B5024600240025002300207A
:1011C000958A138B1B0445EA030626F07F4404EA44
:1011D00001068E4201D1012000E0002070BD10B553
:1011E00001460020002300228B8A0A8B120443EA66
:1011F000020424F07F4010BD0CB5024600200023FD
:101200000193009300920B0F019321F07F41019B0A
:101210001BB1009B1433009303E0090C009B1833AF
:101220000093009B1B680B400BB1012000E00020E5
:101230000CBD002221F07F42D3438382704730B53A
:10124000024600200023948801F0E06504EA15437B
:1012500021F07F41948A0C4054B14BB1012008E049
:101260000054004000127A0040420F00A0860100A6
:10127000002030BD002221F07F42D343838270479B
:10128000DF48006840F00100DD490860084640681A
:10129000DC490840DA49486008460068DA490840F5
:1012A000D74908600846006820F480200860084696
:1012B000406820F4FE0048604FF41F0088607047CB
:1012C000CF49096821F48031CD4A1160114609687F
:1012D00021F480211160B0F5803F03D0B0F5802F5C
:1012E0000ED106E0C649096841F48031C44A116054
:1012F00007E0C349096841F4A021C14A116000E038
:1013000000BF00BF704710B5014600220023002037
:101310004A11012A02D1BA4C236806E0022A02D1FE
:10132000B74C236A01E0B64C636A01F01F02012446
:1013300094401C400CB1012000E0002010BD38B5E5
:10134000002000900024002500BF3120FFF7DBFFC4
:1013500005460098401C00900098B0F5A06F01D0A1
:10136000002DF2D03120FFF7CEFF08B1012400E0BC
:101370000024204638BD01460020A14A106820F014
:10138000F80040EAC10010607047A049086070474B
:10139000024600209A4B586820F47C1042EA010370
:1013A0001843974B58607047984908667047014644
:1013B0000020934A506820F00300084350607047B3
:1013C0008F48406800F00C007047014600208C4AAE
:1013D000506820F0F000084350607047014600203C
:1013E000874A506820F4E060084350607047014627
:1013F0000020834A506820F4605040EAC1005060E9
:10140000704729B17E4A527A02437D4B5A7204E0FA
:101410007B4A527A82437A4B5A7270477B49D83161
:101420000860704701460020754A506820F440402B
:101430000843506070470021714A20321170704A91
:1014400082F82010012802D004280AD104E00121EA
:101450006B4A2032117005E00521694A2032117073
:1014600000E000BF00BF70476949086070476449E9
:10147000096A0143624A116270476549443908604C
:10148000704730B500210022002400235C4D6D68B8
:1014900005F00C0121B1042905D0082923D105E06C
:1014A0005C4D056022E05B4D05601FE0544D6D68AA
:1014B00005F47012524D6D6805F48034022505EB79
:1014C00092421CB9544D554305600BE04C4D6D687C
:1014D00005F400351DB1504D5543056002E04D4DFA
:1014E0005543056002E04B4D056000BF00BF444D11
:1014F0006D6805F0F0010909484D6B5C0568DD4039
:1015000045603F4D6D6805F4E061090A434D6B5C31
:101510004568DD4085603A4D6D6805F46051C90A43
:101520003E4D6B5C4568DD40C560354D6D6805F42A
:101530004041890B3A4D6B5CC568B5FBF3F505611D
:1015400030BD29B12E4A526902432D4B5A6104E045
:101550002B4A526982432A4B5A61704729B1284A63
:1015600092690243264B9A6104E0254A92698243BC
:10157000234B9A61704729B1214AD2690243204B1B
:10158000DA6104E01E4AD26982431D4BDA6170477A
:1015900029B11B4AD2680243194BDA6004E0184AA9
:1015A000D2688243164BDA60704729B1144A126937
:1015B0000243134B1A6104E0114A12698243104B33
:1015C0001A61704712494039086070470F49C86472
:1015D00070470B49C87170470948406A40F08070F5
:1015E00007494862704701460020054A92680A4050
:1015F0000AB1012000E0002070470149887270475D
:10160000001002400000FFF8FFFFF6FE000042421B
:101610008004424200127A0000093D0014000020BC
:101620002400002010B50446FE48844208D1012160
:10163000C014FFF7ADFF0021E014FFF7A9FFC4E0DD
:10164000B4F1804F08D101210846FFF7AEFF002119
:101650000120FFF7AAFFB8E0F348844208D1012136
:101660000220FFF7A2FF00210220FFF79EFFACE05F
:10167000EE48844208D101210420FFF796FF0021A3
:101680000420FFF792FFA0E0E948844208D101213D
:101690000820FFF78AFF00210820FFF786FF94E06B
:1016A000E448844208D101211020FFF77EFF002189
:1016B0001020FFF77AFF88E0DF48844208D101213B
:1016C0002020FFF772FF00212020FFF76EFF7CE053
:1016D000DA48844208D101214014FFF759FF002164
:1016E0006014FFF755FF70E0D548844209D101210D
:1016F000C804FFF74DFF00214FF40020FFF748FF1B
:1017000063E0D048844209D101210805FFF740FF7A
:1017100000214FF48010FFF73BFF56E0CA48844297
:1017200009D101214805FFF733FF00214FF40010D4
:10173000FFF72EFF49E0C548844208D1012140202F
:10174000FFF733FF00214020FFF72FFF3DE0C048A7
:10175000844208D101218020FFF727FF002180204B
:10176000FFF723FF31E0BB48844208D101218015F7
:10177000FFF71BFF0021A015FFF717FF25E0B64874
:10178000844209D101210804FFF702FF00214FF430
:101790008030FFF7FDFE18E0B048844209D10121F6
:1017A0004804FFF7F5FE00214FF40030FFF7F0FE8C
:1017B0000BE0AB48844208D101218804FFF7E8FE22
:1017C00000214FF48020FFF7E3FE10BD00220288C5
:1017D000944B98420ED0994B98420BD0B0F1804F69
:1017E00008D0914B984205D0904B984202D0904B34
:1017F000984204D14FF68F731A404B881A438D4B91
:10180000984207D08C4B984204D04FF6FF431A40C1
:10181000CB881A4302808B8883850B880385814B94
:1018200098420BD0854B984208D08B4B984205D0FC
:101830008A4B984202D08A4B984201D10B7A038698
:1018400001238382704770B5002400220023058C99
:101850004FF6FE7635400584028C8388048B4FF664
:101860008F752C40B51E2C400D882C43751E2A40C8
:101870000D892A434D882A436A4DA8420BD06F4DEB
:10188000A84208D0744DA84205D0744DA84202D099
:10189000734DA84213D14FF6F7752A404D892A435C
:1018A0004FF6FB752A408D882A434FF6FF652B4083
:1018B0004FF6FF552B408D892B43CD892B438380D9
:1018C0000483CD888586028470BD70B50024002213
:1018D0000023058C4FF6EF7635400584028C838813
:1018E000048B48F6FF752C404FF6FF452C400D88C1
:1018F0004FF6FF7606EA05252C434FF6DF752A40A2
:101900000D8906EA05152A434D8806EA05152A437E
:10191000444DA84202D0494DA8421DD14FF67F75D3
:101920002A404D894FF6FF7606EA05152A434FF601
:10193000BF752A408D8806EA05152A434FF6FF3504
:101940002B404FF2FF752B408D8906EA85052B430E
:10195000CD8906EA85052B4383800483CD880587DE
:10196000028470BD70B5002400220023058C4FF660
:10197000FF6635400584028C8388848B4FF68F7513
:101980002C404FF6FC752C400D882C434FF6FF552C
:101990002A400D894FF6FF7606EA05252A434D8831
:1019A00006EA05252A431F4DA84202D0234DA8422E
:1019B0001DD14FF2FF752A404D894FF6FF7606EA9A
:1019C00005252A434FF6FF352A408D8806EA05256E
:1019D0002A434EF6FF752B404DF6FF752B408D893F
:1019E00006EA05152B43CD8906EA05152B438380AE
:1019F0008483CD888587028470BD70B50022002362
:101A00000024058C4EF6FF7635400584038C8488CF
:101A1000828B48F6FF752A404FF6FF452A400D8815
:101A200020E00000002C01400004004000080040BD
:101A3000000C004000100040001400400034014041
:101A4000004C01400050014000540140001800408B
:101A5000001C0040002000400040014000440140C4
:101A6000004801404FF6FF7606EA05252A434DF669
:101A7000FF752B400D8906EA05352B434D8806EA94
:101A800005352B43FA4DA84202D0FA4DA84208D1A1
:101A90004BF6FF752C408D894FF6FF7606EA8515CB
:101AA0002C4384808283CD88A0F84050038470BD8D
:101AB000828B4FF2FF331A408283828B4FF6FF7383
:101AC00003EA01231A4382837047F0B50C4615469A
:101AD000002200210026078C4EF6FF7C07EA0C0747
:101AE0000784828B018C4FF6FF7707EA043640F6B5
:101AF000FF473A404FF6FF7707EA05273A434FF68C
:101B0000FF7707EA03373A43D94FB8420ED0D94F8F
:101B1000B8420BD0B0F1804F08D0D74FB84205D0B3
:101B2000D64FB84202D0D64FB84206D14DF6FF7715
:101B3000394046F48057394305E047F6FF573940AE
:101B400044F48057394382830184F0BD828B4FF681
:101B5000F3731A408283828B0A4382837047F0B505
:101B60000C461546002200210026078C4FF6FF6C1C
:101B700007EA0C070784828B018C4FF6FF7707EA90
:101B800004264FF60C773A404FF6FF7707EA031723
:101B90002F433A43B64FB8420ED0B64FB8420BD09F
:101BA000B0F1804F08D0B44FB84205D0B34FB8421F
:101BB00002D0B34FB84206D14FF6FF57394046F432
:101BC0008077394305E04FF2FF57394044F480777E
:101BD000394382830184F0BD028B4FF2FF331A40F8
:101BE0000283028B4FF6FF7303EA01231A43028339
:101BF0007047F0B50C461546002200210026078CE0
:101C00004FF6EF7C07EA0C070784028B018C4FF636
:101C1000FF7707EA041640F6FF473A404FF6FF7792
:101C200007EA03373A434FF6FF7707EA05273A43B7
:101C30008F4FB8420ED08F4FB8420BD0B0F1804FCB
:101C400008D08D4FB84205D08C4FB84202D08C4F8F
:101C5000B84206D14FF6DF77394046F010073943D6
:101C600005E04FF65F77394044F0100739430283AF
:101C70000184F0BD028B4FF6F3731A400283028B8E
:101C80000A4302837047F0B50C4615460022002136
:101C9000068C4FF6FE773E400684028B018C4FF691
:101CA0000C7632407E1C06EA03162E433243704EF9
:101CB000B0420ED06F4EB0420BD0B0F1804F08D082
:101CC0006D4EB04205D06D4EB04202D06C4EB04267
:101CD00006D14FF6FD76314044F00106314305E070
:101CE0004FF6F576314044F001063143028301841A
:101CF000F0BD70B505460C465D4885420ED05D4886
:101D000085420BD0B5F1804F08D05B48854205D0A5
:101D10005A48854202D05A48854200D100E000BFAF
:101D2000208850B92389A28861882846FFF7ABFF35
:101D3000E1882846FFF79EFF25E0208804280AD185
:101D40002389A28861882846FFF753FFE188284647
:101D5000FFF742FF17E0208808280AD12389A288CC
:101D600061882846FFF7FBFEE1882846FFF7EEFE74
:101D700009E02389A28861882846FFF7A6FEE1884A
:101D80002846FFF795FE70BD2DE9F04105460C464B
:101D900000260127608808B9022600E00026A088F6
:101DA000012801D1022700E001272088A0B923895A
:101DB000A28861882846FFF766FFE1882846FFF77A
:101DC00059FF23893A4631462846FFF712FFE1883A
:101DD0002846FFF701FF13E02389A288618828467F
:101DE000FFF707FFE1882846FFF7F6FE23893A460A
:101DF00031462846FFF747FFE1882846FFF73AFFBC
:101E0000BDE8F0810A884B881A438B881A43CB8837
:101E10001A430B891A434B891A438B891A43A0F83A
:101E2000442070474FF6FF71818000210180C180FE
:101E30004180017270470021018041808180C18012
:101E4000018141818181C1817047002101804180F0
:101E5000012181800021C180018170470021018022
:101E600041808180C1800181418181817047000072
:101E7000002C0140003401400004004000080040F4
:101E8000000C004021B1028842F00102028004E00F
:101E900002884FF6FE731A400280704731B1B0F8E5
:101EA000442042F40042A0F8442005E0B0F8442069
:101EB000C2F30E02A0F8442070471AB183890B4385
:101EC000838102E083898B438381704781827047DD
:101ED00041EA0203A0F8483070471AB183890B43E6
:101EE000838102E083898B438381704701894FF6A8
:101EF000F8721140018170470A46002101894FF6AE
:101F00008F73194011430181704730B504460D4667
:101F100029462046FFF7F0FF208940F00700208186
:101F200030BD2DE9F04104460D4616461F46602D92
:101F300006D13B46012231462046FFF75AFE05E016
:101F40003B46012231462046FFF79DFE29462046AA
:101F5000FFF7D2FF208940F007002081BDE8F08123
:101F600030B50C4600210189C9B24FF6FF7505EA6C
:101F70000325154325432943018130BD2DE9F04157
:101F800005460E4617469846002443463A463146D3
:101F90002846FFF7E5FF2C894FF6F870044044F01F
:101FA00007044FF68F70044044F070042C81BDE8A4
:101FB000F081F0B504460D4616461F463B463246B4
:101FC00029462046FFF7CCFF208940F4804020813D
:101FD000F0BD0185828270470A46002101884FF6D4
:101FE0008F731940114301807047F0B50C461546B8
:101FF0001E460021002200230189028B038C4FF62C
:10200000F877394021434FF6FC473A4040F2011738
:102010003A434FF6DD773B404FF6FF7707EA061766
:102020002F433B43018102830384F0BD0A46002114
:10203000018B4FF68F7319401143018370470A4695
:102040000021018B48F6FF7319404FF6FF7303EA36
:1020500002231943018370470A460021818B4FF602
:102060008F7319401143818370470A460021818B89
:1020700048F6FF7319404FF6FF7303EA0223194332
:102080008183704721B1028842F08002028004E01F
:1020900002884FF67F731A400280704721B1828810
:1020A00042F00402828004E082884FF6FB731A40FB
:1020B0008280704721B1828842F00802828004E069
:1020C00082884FF6F7731A408280704721B1828868
:1020D00042F00102828004E082884FF6FE731A40CB
:1020E000828070470A460021018B4FF6F773194032
:1020F0001143018370470A460021018B4FF2FF73A1
:1021000019404FF6FF7303EA022319430183704716
:102110000A460021818B4FF6F773194011438183E2
:1021200070470A460021818B4FF2FF7319404FF62A
:10213000FF7303EA02231943818370470A46002193
:10214000018B4FF6FB7319401143018370470A4618
:102150000021018B4FF6FF3319404FF6FF7303EA5E
:1021600002231943018370470A460021818B4FF6F1
:10217000FB7319401143818370470A460021818B0C
:102180004FF6FF3319404FF6FF7303EA022319435A
:10219000818370470A460021018B4FF67F731940F7
:1021A0001143018370470A460021018BC1F30E01E0
:1021B0004FF6FF7303EA02231943018370470A466F
:1021C0000021818B4FF67F73194011438183704743
:1021D0000A460021818BC1F30E014FF6FF7303EA1B
:1021E00002231943818370470A460021018C4FF670
:1021F000FD7319401143018470470A460021018C88
:102200004FF6F77319401143018470470A460021C5
:10221000018C4FF6DF7319404FF6FF7303EA021388
:102220001943018470470A460021018C4FF67F73E1
:1022300019404FF6FF7303EA0213194301847047F4
:102240000A460021018C4FF6FF5319404FF6FF73E9
:1022500003EA02231943018470470A460021018CD6
:102260004FF2FF7319404FF6FF7303EA022319433D
:10227000018470470A460021018C4DF6FF73194016
:102280004FF6FF7303EA023319430184704730B5F8
:10229000002301248C40A3B2048C9C430484048C4E
:1022A00002FA01F5ADB22C43048430BD30B50023F1
:1022B00004248C40A3B2048C9C430484048C02FA52
:1022C00001F5ADB22C43048430BD70B50346002047
:1022D00000241846183001258D40ACB21D8CA54352
:1022E0001D8409B1082909D100EB6100056825F0BA
:1022F000700505600568154305600EE00D1FC5F308
:102300004E052844056825F4E045056005684FF64C
:10231000FF7606EA02263543056070BD21B10288CA
:1023200042F00202028004E002884FF6FD731A4078
:102330000280704721B1028842F00402028004E06A
:1023400002884FF6FB731A400280704721B18288E1
:1023500042F08002828004E082884FF67F731A4048
:102360008280704702884FF6F7731A400280028815
:102370000A430280704782884FF68F731A4082802A
:1023800082880A438280704702894FF6F8731A40A8
:10239000028102890A430281704702894FF67F73E6
:1023A0001A40028102890A43028170478184704782
:1023B00081857047818670470187704781877047A4
:1023C000A0F84010704702884FF6FF431A40028081
:1023D00002880A43028070470146888E7047014692
:1023E000088F70470146888F70470146B1F840005A
:1023F00070470146888C70470146088D7047024639
:102400000020138A0B400BB1012000E00020704730
:10241000CA430282704730B50246002000230024E0
:10242000158A05EA0103958905EA010413B10CB187
:10243000012000E0002030BDCA4302827047000046
:1024400010B50446FB48844209D101218803FFF7F7
:102450009FF800214FF48040FFF79AF832E0F648E9
:10246000844209D101214804FFF79FF800214FF46D
:102470000030FFF79AF825E0F048844209D10121A5
:102480008804FFF792F800214FF48020FFF78DF8C1
:1024900018E0EB48844209D10121C804FFF785F810
:1024A00000214FF40020FFF780F80BE0E54884425C
:1024B00008D101210805FFF778F800214FF48010BA
:1024C000FFF773F810BD2DE9F04786B005460E46BC
:1024D0000024A24600BFA1460027B08900B100BF7A
:1024E0002F462C8A4CF6FF700440F08804432C825F
:1024F000AC894EF6F3100440B088318908437189E5
:1025000008430443AC81AC8A4FF6FF400440B089D5
:102510000443AC8201A8FEF7B4FFC648874202D14B
:10252000DDF810A001E0DDF80CA0A88900F400405F
:1025300040B10AEBCA0000EB0A1031684900B0FB59
:10254000F1F807E00AEBCA0000EB0A1031688900D5
:10255000B0FBF1F86420B8FBF0F00401200964211D
:1025600001FB1089A88900F4004040B1322000EB43
:10257000C900B0FBF1F000F00700044308E032208E
:1025800000EB09106421B0FBF1F000F00F000443F0
:102590002C8106B0BDE8F0874FF416510160002190
:1025A0008180C18001810C2141810021818170479E
:1025B00010B502460020108A4FF2FF0318400B8826
:1025C0004C8823438C882343CC88234318431082B0
:1025D00010BD0021018041808180C180704721B100
:1025E000828942F40052828104E082894DF6FF73B1
:1025F0001A4082817047F0B503460024002600256A
:10260000002040F66A17B94200D100BF1846C1F356
:10261000421401F01F06012707FA06F5012C01D12B
:102620000C3004E0022C01D1103000E014301AB15B
:1026300007682F43076002E00768AF430760F0BDFB
:102640001AB1838A0B43838202E0838A8B4383829D
:102650007047028A4FF6F0731A400282028A0A43D8
:102660000282704782894FF2FF731A408281828909
:102670000A438281704721B1828942F0020282813D
:1026800004E082894FF6FD731A4082817047028A06
:102690004FF6DF731A400282028A0A4302827047B1
:1026A00021B1028A42F48042028204E0028A4BF69F
:1026B000FF731A4002827047C1F30802828070479C
:1026C00001468888C0F308007047818941F0010104
:1026D00081817047028BD2B20283028B42EA0122CF
:1026E00002837047028B02F47F420283028B0A430B
:1026F0000283704721B1828A42F02002828204E084
:10270000828A4FF6DF731A408282704721B1828A33
:1027100042F01002828204E0828A4FF6EF731A4080
:102720008282704721B1828A42F00802828204E0EC
:10273000828A4FF6F7731A408282704721B18289EC
:1027400042F40042828103E08289C2F30E02828158
:10275000704721B1828A42F40062828204E0828A58
:102760004FF2FF731A4082827047828A4FF6FB73E2
:102770001A408282828A0A438282704721B1828A09
:1027800042F00202828204E0828A4FF6FD731A4010
:102790008282704702460020B1F5007F00D100BF61
:1027A00013880B400BB1012000E00020704701F4BA
:1027B0000072B2F5007F00D100BFCA4302807047AB
:1027C00070B50246002400230025002040F66A165A
:1027D000B14200D100BFC1F3421501F01F03012631
:1027E00006FA03F3012D02D19689334006E0022D4B
:1027F00002D1168A334001E0968A33400C1201263A
:1028000006FA04F41688344013B10CB1012000E03C
:10281000002070BD10B50022002340F66A14A142CA
:1028200000D100BF0A1201249440A3B2DC4304800B
:1028300010BD000000380140004400400048004046
:10284000004C00400050004000B593B0012104202E
:10285000FEF784FE01214802FEF780FE01210846B2
:10286000FEF76FFE4FF40040FEF7DCFD00208DF810
:102870004B000320ADF848008DF84A0012A94B48E0
:10288000FEF7AEF90523012200214948FDF7B5FE08
:102890000523022201214648FDF7AFFE00200D90DE
:1028A00001208DF838008DF8390000200F9010902D
:1028B00002208DF844000DA93D48FDF706FE3C4876
:1028C0004C300290002006904FF4807008903948F8
:1028D000039080200790C0000990002004900220FF
:1028E000059020200A90C0010B9000200C9002A9B6
:1028F0003148FEF78DF8012202212F48FEF7BFF87C
:102900000B208DF8040002208DF8050001208DF8C1
:10291000070001A8FDF749FD01212748FEF7A3F8AC
:1029200001212348FDF708FE01212148FDF7F9FDAB
:102930001F48FDF718FE00BF1D48FDF719FE0128CE
:10294000FAD01B48FDF71EFE00BF1948FDF71FFE19
:102950000128FAD001211648FDF7ABFE13B000BDE7
:1029600010B50220FEF7B9F810B10220FEF7C9F841
:1029700010BD00F063F84FF44070FDF711FD00F05A
:102980002BF800F053F900F0D5F900F062FA0020BE
:1029900000F03DFA00F0F2FAFFF756FF00F0A8FB56
:1029A00004210248FEF7C9F900BFFEE70008014014
:1029B000002401403C00002008000240704700BF96
:1029C000FEE700BFFEE700BFFEE700BFFEE770477F
:1029D00010B500F059FC10BD08B501210420FEF728
:1029E000BDFD10208DF8030003208DF802000420A7
:1029F000ADF8000069460948FEF7F2F80820ADF886
:102A0000000069460548FEF7EBF804210348FEF78D
:102A100096F908210148FEF792F908BD0008014027
:102A200008B525208DF8000004208DF80100012054
:102A30008DF803006846FDF7B8FC08BD00B585B009
:102A400001210420FEF78AFD01218803FEF786FD9F
:102A50004FF40070ADF8100018208DF8130003201B
:102A60008DF8120004A95348FEF7BAF84FF48060BD
:102A7000ADF8100004208DF8130004A94D48FEF7AE
:102A8000AFF84FF4165000900020ADF80400ADF8F8
:102A90000600ADF80800ADF80C000C20ADF80A00F7
:102AA00069464548FFF70FFDFFF7BAFF012240F2E4
:102AB00025514148FFF79FFD01213F48FFF78FFD5A
:102AC00005B000BD70B504460D4629462046FFF707
:102AD000F3FD00BF80212046FFF75CFE0028F9D0FF
:102AE00070BD2DE9F04107460D461646002405E06D
:102AF000295D3846FFF7E6FF601CC4B2B442F7DB3D
:102B000000BF40213846FFF745FE0028F9D0BDE858
:102B1000F08170B506460C46002500BF615D304669
:102B2000FFF7D0FF6D1C605D0028F7D100BF40218A
:102B30003046FFF72FFE0028F9D070BD2DE9F04197
:102B400005460C46260AE7B231462846FFF7B4FD93
:102B500000BF80212846FFF71DFE0028F9D0394626
:102B60002846FFF7A9FD00BF80212846FFF712FE87
:102B70000028F9D0BDE8F08170B504460D46E1B2F9
:102B80000D48FFF799FD00BF80210B48FFF702FEBB
:102B90000028F9D0204670BD10B5044600BF2021A2
:102BA0000548FFF7F7FD0028F9D00348FFF788FD37
:102BB00010BD00000008014000380140014601EB53
:102BC000C1024FF0E0235A6100229A6101221A618A
:102BD00000BF4FF0E022106900F001021AB100F4CA
:102BE0008032002AF5D000224FF0E0231A619A616A
:102BF0007047014642F228324A434FF0E0235A61BF
:102C000000229A6101221A6100BF4FF0E022106990
:102C100000F001021AB100F48032002AF5D000223F
:102C20004FF0E0231A619A617047000000B585B04B
:102C300001210820FEF792FC01214805FEF79BFCCC
:102C40001C208DF81300C020ADF8100003208DF873
:102C5000120004A9C248FDF7C3FFC248FEF70EF9EF
:102C60004FF48060ADF80A000001ADF80C00BE48DA
:102C700000904BF6FF70ADF806000020ADF80400A0
:102C80003020ADF808006946B648FEF710F901217A
:102C9000B448FEF78AF905B000BD70B504460D468C
:102CA00000BF4FF40031AF48FEF7A6FA0028F8D174
:102CB0000121AC48FEF79DF900BFAC49A948FEF7D9
:102CC00079FA0028F9D000227821A648FEF7E7F922
:102CD00000BFA749A348FEF76DFA0028F9D02146A6
:102CE000A048FEF7D6F900BFA149891E9D48FEF70E
:102CF00061FA0028F8D029469A48FEF7CAF900BFC1
:102D00009B49891E9748FEF755FA0028F8D0012103
:102D10009448FEF77AF970BD10B5044621460020AC
:102D2000FFF7BBFF10BD10B5044621464020FFF75A
:102D3000B4FF10BD10B56420FFF740FFAE20FFF7D1
:102D4000EBFF2020FFF7E8FF1020FFF7E5FFB020A2
:102D5000FFF7E2FFC820FFF7DFFF0020FFF7DCFFEF
:102D60001020FFF7D9FF4020FFF7D6FF8120FFF7A3
:102D7000D3FFFF20FFF7D0FFA120FFF7CDFFA62054
:102D8000FFF7CAFFA820FFF7C7FF3F20FFF7C4FFE8
:102D9000A420FFF7C1FFD320FFF7BEFF0020FFF7FD
:102DA000BBFFD520FFF7B8FFF020FFF7B5FFD92014
:102DB000FFF7B2FF2220FFF7AFFFDA20FFF7ACFFEB
:102DC0001220FFF7A9FFDB20FFF7A6FF2020FFF767
:102DD000A3FF8D20FFF7A0FF1420FFF79DFFAF207A
:102DE000FFF79AFF10BD70B504460D4605F1B0011E
:102DF000C8B2FFF791FF102141EA1410FFF78CFFD2
:102E000004F00F0141F00100FFF786FF70BD70B5BF
:102E10000646002415E004F1B001C8B2FFF77CFFBC
:102E20000020FFF779FF1020FFF776FF002504E070
:102E30003046FFF778FF681CC5B2802DF8DB601CB8
:102E4000C4B2082CE7DB70BD10B50020FFF7DFFF30
:102E500010BD10B5AF20FFF75FFF8D20FFF75CFFBF
:102E60001420FFF759FF10BD10B5AE20FFF754FF37
:102E70008D20FFF751FF1020FFF74EFF10BD2DE909
:102E8000F0470646894617469A464FF00008002448
:102E90000025BAF1010F03D0BAF1020F5DD125E090
:102EA00020E0785D203800F0FF087E2E04DD00264B
:102EB00009F1010000F0FF0949463046FFF793FF92
:102EC000002409E008EB48012A4A02EB4101085DB1
:102ED000FFF729FF601CC4B2062CF3DBB01DC6B29D
:102EE000681CC5B2785D0028DBD136E031E0785D42
:102EF000203800F0FF08782E04DD002609F10100DB
:102F000000F0FF0949463046FFF76DFF002407E057
:102F100004EB0811184A505CFFF705FF601CC4B2AF
:102F2000082CF5DB09F10100C1B23046FFF75BFF69
:102F3000082407E004EB08110F4A505CFFF7F3FE8A
:102F4000601CC4B2102CF5DB06F10800C6B2681C88
:102F5000C5B2785D0028CAD100BF00BFBDE8F087C8
:102F6000000C014000540040801A060001000300DC
:102F700082000700F64600081E49000800B58DB023
:102F800001210D20FEF7EAFA0121C802FEF7E6FA58
:102F90000CA8FDF7B0FE4FF48070ADF830000320B0
:102FA0008DF8320018208DF833000CA94D48FDF73C
:102FB00017FE0CA8FDF79FFE4FF40050ADF830004F
:102FC00003208DF8320018208DF833000CA94648F4
:102FD000FDF706FE0CA8FDF78EFE4FF48050ADF80D
:102FE000300003208DF8320018208DF833000CA932
:102FF0003D48FDF7F5FD09A8FEF714FF42F20F70FA
:10300000ADF828000020ADF82400ADF82A00ADF896
:10301000260009A93548FEF7D9FB05A8FEF70BFFE6
:103020006020ADF814000120ADF816000420ADF8C2
:1030300018000020ADF81C00ADF81E00ADF820000F
:10304000ADF8220040F2F310ADF81A0005A92748A8
:10305000FEF7F9FB08212548FFF744F840F2F3108A
:10306000ADF81A0005A92148FEF72FFC08211F48DA
:10307000FFF741F840F2F310ADF81A0005A91B481C
:10308000FEF770FC08211948FFF742F801A8FEF787
:10309000E5FE4FF40060ADF804004010ADF8060006
:1030A0008010ADF808000020ADF80A004FF4805001
:1030B000ADF80C000020ADF80E004FF48040ADF8E4
:1030C00010008F20ADF80A0001A90848FEF79AFE0B
:1030D00001210648FEF7D6FE01210448FEF7DEFE78
:1030E0000DB000BD00080140000C0140002C014063
:1030F0001FB501210846FEF73EFA41F61F40ADF824
:1031000004000020ADF8060042F20F70ADF8080090
:103110000020ADF80A008DF80C0001A94FF08040A6
:10312000FEF754FB012211469007FEF7C6FE1C2055
:103130008DF8000003208DF8010001208DF80300B8
:103140006846FDF732F901218807FEF79BFE1FBD97
:1031500000B589B000200590069007900890019076
:1031600002900390049001218807FFF754F900288A
:1031700025D01448028814A105A801F0E9F901231B
:1031800005AA19461846FFF77AFE0E4801880EA0D8
:1031900001F0CEF90B4842880EA101A801F0D8F940
:1031A000012301AA02211846FFF769FE054801889C
:1031B00005A001F0BDF901218807FFF73DF909B02D
:1031C00000BD00003C0000206C696768743A25640B
:1031D0000D0A000074656D703A25640D0A00000048
:1031E00000BFBF2080F31188BFF34F8FBFF36F8FF5
:1031F00000BF00BFFEE7001F4FF080730360001F99
:1032000021F001030360001F2B4B036014380260A0
:103210002038704729484FF0E021486107200861B5
:10322000704710B52648006840F47F0024490860C4
:103230000846006840F07F400860FFF7EBFF002081
:1032400020490860FCF770FF002010BD704700BFE8
:10325000BF2080F31188BFF34F8FBFF36F8F00BF84
:1032600018480068401C17490860704715480068F6
:10327000401E144908600846006820B9002080F309
:10328000118800BF00BF704710B500BFBF2080F39A
:103290001188BFF34F8FBFF36F8F00BF00F09FFA0D
:1032A00020B14FF0805006491C39086000BF002053
:1032B00080F3118800BF10BDE13100083F19010003
:1032C00020ED00E04000002010B50146714800E00C
:1032D000006803688B42FBD30246436813448B4269
:1032E00004D143684C682344436001460A464B6856
:1032F00013440468A34211D1674C03682468A342B5
:1033000008D04B680468646823444B6003681B68FA
:103310000B6005E0604B1B680B6001E003680B600D
:10332000884200D0016010BD30B54FF488435B483F
:1033300000F007042CB1C01D20F00700574C041BFF
:103340001B1B0246534C22600024524D6C60D01867
:10335000083820F00700504C206000244E4D2D68A6
:103360006C604D4D2D682C601146441A4C604A4CDF
:1033700024680C604A4D4C682C604A4D4C682C60A7
:103380004FF00044484D2C6030BD2DE9F04105461A
:103390004FF0000800F066FB3F48006808B9FFF7EF
:1033A000C3FF414800682840002847D145B108358F
:1033B00005F0070020B105F00700C0F10800054442
:1033C000002D3BD037480068854237D8314E304613
:1033D000046801E0264624686068A84202D220689A
:1033E0000028F7D12C480068844227D0306800F1CB
:1033F0000808206830606068401B102807D96719EA
:103400006068401B786065603846FFF75DFF2549BE
:1034100060680968081A234908600846006820495E
:103420000968884203D21F4800681D4908601E4988
:1034300060680968084360600020206000F046FA78
:103440004046BDE8F08170B506463546D6B1083D28
:103450002C46154960680968084098B1206888B909
:103460001149606809688843606000F0FBFA0D4903
:103470006068096808440B4908602046FFF724FF8C
:1034800000F024FA70BD07480068704704480068DF
:1034900070477047440000204C0000209C00002032
:1034A00054000020500000205800002000F10801C6
:1034B00041604FF0FF31816000F10801C16001619E
:1034C00000210160704700210161704742684A6035
:1034D00093688B60936859609160086103685B1C16
:1034E0000360704710B502460B685C1C0CB910698C
:1034F00007E002F1080000E04068446824689C424C
:10350000FAD944684C604C68A160886041600A61E7
:103510001468641C146010BD01460A69D1E90130C9
:103520009860D1E9010358605068884201D18868E9
:103530005060002008611068401E106010687047DD
:1035400010B5002407E004EB8401FE4A02EB810081
:10355000FFF7ACFF641C052CF5D3FB48FFF7A6FF73
:10356000FA48FFF7A3FFFA48FFF7A0FFF948FFF773
:103570009DFFF948FFF79AFFF348F8490860F348C0
:10358000F749086010BD10B50446FFF760FEF54826
:103590000068401CF3490860F348006840B9F248ED
:1035A00004600846006801280DD1FFF7C9FF0AE052
:1035B000EE48006838B9EC480068C06AE16A8842A1
:1035C00001D8E9480460EA480068401CE8490860FE
:1035D00094F82C1001208840E64909680843E54921
:1035E0000860E16A01EB8101D64A02EB8100211DEE
:1035F000FFF76CFFFFF73AFEDC48006868B1DA4875
:103600000068C06AE16A884207D24FF08050DA4908
:103610000860BFF34F8FBFF36F8F10BD2DE9FF5FC1
:1036200080460E469146DDE90E7A109CA9F1010014
:10363000216B01EB800B2BF0070B002507E0715D80
:1036400004F134004155705D00B902E06D1C102D8D
:10365000F5D300BF002143200155052F00D30427D7
:10366000E762201DFFF72FFF04F11800FFF72BFF83
:103670002461C7F10500A06164620020606484F8E1
:10368000480041465846039AFFF7B5FD2060BAF15D
:10369000000F01D0CAF80040BDE8FF9F2DE9FF4FA1
:1036A00085B0804689461746DDE912ABB800FFF7C2
:1036B0006CFE064656B14C20FFF767FE04460CB17F
:1036C000266304E03046FFF7BEFE00E000247CB134
:1036D0000020CDE900ABCDE902403A4649464046DC
:1036E000089BFFF79BFF2046FFF74DFF012501E0F8
:1036F0004FF0FF35284609B0BDE8F08F97490968BB
:10370000096809B9012100E0002121B14FF0FF3122
:103710009A4A116006E091490968C968C868974AE1
:1037200041681160704710B50446206BFFF78BFEAF
:103730002046FFF788FE10BD70B50546FFF787FDF0
:1037400015B98948006800E028460446201DFFF7A7
:10375000E3FE78B9E06A00EB80007A4951F8200076
:1037600040B994F82C1001208840824909688143AF
:1037700080480160A06A18B104F11800FFF7CCFE80
:103780007B480068401C7A4908607748006884429A
:1037900009D1211D6F48FFF799FE79480068401C48
:1037A0007749086009E06F480068401E6D4908606D
:1037B0002046FFF7B8FFFFF7A1FFFFF757FD6B4863
:1037C000006858B168480068844207D14FF08050C3
:1037D00069490860BFF34F8FBFF36F8F70BD2DE94C
:1037E000F041002767480068002863D166480068F8
:1037F000451C654805608DB95848D0F80080584888
:103800000068564908605648C0F800805F48006864
:10381000401C5E490860FFF771FF00BF5748006811
:1038200085423BD300BF4D480068006808B90120BD
:1038300000E0002020B14FF0FF30504908602CE03C
:1038400046480068C068C4686668B54202D24B4802
:10385000066022E0201DFFF75FFEA06A18B104F1A8
:103860001800FFF759FE94F82C10012088404149B8
:10387000096808433F490860E16A01EB8101314A68
:1038800002EB8100211DFFF721FE3749E06A09683C
:10389000C96A8842C7D30127C5E700BF324800681C
:1038A000C06A00EB8000274951F82000012800D9A8
:1038B000012704E036480068401C35490860354857
:1038C000006800B101273846BDE8F08170B50024DA
:1038D0000026FFF7BCFC2B480068401E2949086001
:1038E0000846006800287BD11E480068002877D071
:1038F00024E01748C068C46804F11800FFF70CFE04
:10390000201DFFF709FE94F82C100120884019496A
:103910000968084317490860E16A01EB8101094A17
:1039200002EB8100211DFFF7D1FD0F49E06A096814
:10393000C96A884202D30120164908600448006819
:1039400050BB2AE09C440020004500201445002084
:10395000284500203C450020504500206000002004
:10396000640000206C0000205C0000207800002033
:10397000880000207400002004ED00E08C0000208E
:1039800068000020940000207000002084000020C7
:103990007C0000208000002001E0012000E00020E9
:1039A0000028A6D00CB1FFF7A9FEFD48056865B157
:1039B00000BFFFF714FF10B10120FA4908606D1E27
:1039C000002DF6D10020F6490860F648006838B1AD
:1039D00001263007F4490860BFF34F8FBFF36F8FA4
:1039E000FFF744FC304670BD2DE9F04105460E4618
:1039F000EE480768EE480068001DFFF78DFD50B9DE
:103A0000EB48006890F82C1001208840E9490968CB
:103A10008143E8480160681C38B936B1E448016860
:103A2000091DE548FFF752FD1AE07C19E0480068DF
:103A30004460BC4207D2DE480168091DDF480068C7
:103A4000FFF750FD0CE0DA480168091DDC4800680A
:103A5000FFF748FDDB480068844201D2D948046082
:103A6000BDE8F081D8480068401CD749086070471D
:103A70002DE9F047044688464FF00009FFF7F2FFB2
:103A8000CA480668206800EB08052068B04207D9DC
:103A90002068A8420BD9B54209D94FF0010906E0C8
:103AA0002068A84201D8B54201D94FF0010925602C
:103AB000B9F1000F03D0A81B0021FFF795FFFFF716
:103AC00005FF07463FB94FF08050B7490860BFF384
:103AD0004F8FBFF36F8FBDE8F08770B504460025A8
:103AE00044B1FFF7BFFF00212046FFF77DFFFFF73E
:103AF000EDFE05463DB94FF08050AB490860BFF37D
:103B00004F8FBFF36F8F70BD70B50446FFF79FFBFB
:103B100014B9A748006800E020460646F56AFFF79A
:103B2000A5FB284670BD70B5024600BFBF25EFF368
:103B3000118485F31188BFF34F8FBFF36F8F00BFE0
:103B4000214612B99A4C246800E014462346D86AEC
:103B500000BF81F3118800BF70BD2DE9F04780469A
:103B60000D464FF00009052D00D30425FFF76FFB2C
:103B7000B8F1000F02D18E48006800E040460446CC
:103B8000E66AAE4251D0B5420BD9894800688442FA
:103B90000DD087480068C06AA84208D84FF00109D4
:103BA00005E083480068844201D14FF00109E76ACB
:103BB000E562A06900F0004010B9C5F10500A06100
:103BC00007EB8701814A02EB81016069884201D1DC
:103BD000012000E00020E0B1201DFFF79DFC30B97E
:103BE0000120B8407349096881437248016094F824
:103BF0002C10012088406F49096808436D4908600E
:103C0000E16A01EB8101714A02EB8100211DFFF79E
:103C10005DFCB9F1000F07D04FF080506249086099
:103C2000BFF34F8FBFF36F8F00BFFFF71FFBBDE8E0
:103C3000F0876548006818B101205A4908601DE006
:103C40000020584908605B480068B0FA80F0C0F175
:103C50001F0101EB81025D4B03EB82004268526859
:103C6000426000F108024368934202D14268526800
:103C700042604268D2684E4B1A6000BF704770B510
:103C80000546FFF7E4FA15B94948006800E0284600
:103C90000446201DFFF740FC78B9E06A00EB800085
:103CA0004A4951F8200040B994F82C10012088406E
:103CB0004049096881433F480160A06A18B104F196
:103CC0001800FFF729FC211D3B48FFF7FFFBFFF71A
:103CD000CDFA3F48006828B1FFF7B9FAFFF70EFDAB
:103CE000FFF7C4FA32480068844217D138480068A8
:103CF00040B14FF080502C490860BFF34F8FBFF3A5
:103D00006F8F0BE02C48006832490968884203D164
:103D100000202749086001E0FFF78BFF70BD10B558
:103D2000014600200A46244C5369A34201D10123D5
:103D300000E0002373B1284C936AA34201D1012310
:103D400000E0002333B9936A0BB9012300E000239C
:103D500003B1012010BD70B505462C46F4B31448DC
:103D6000006884424BD0FFF772FA2046FFF7D7FF76
:103D7000A8B3201DFFF7D0FB94F82C100120884039
:103D80000C49096808430B490860E16A01EB8101AD
:103D90000E4A02EB8100211DFFF798FB04491FE04A
:103DA0007C0000208000002004ED00E07000002076
:103DB0005C000020740000205045002064000020BA
:103DC000600000208C000020940000209C44002013
:103DD000780000206C000020284500200FE00CE057
:103DE000E06A0968C96A884207D34FF08050FE49EB
:103DF0000860BFF34F8FBFF36F8FFFF737FA70BDC7
:103E00002DE9F04106460027344600BFBF21EFF3FD
:103E1000118081F31188BFF34F8FBFF36F8F00BF05
:103E200005462046FFF77BFF20B3F0480068E0B965
:103E3000EF49E06A0968C96A884200D30127201D5A
:103E4000FFF76AFB94F82C1001208840E9490968C3
:103E50000843E8490860E16A01EB8101E64A02EBA8
:103E60008100211DFFF732FB04E004F11801E34853
:103E7000FFF72CFB00BF85F3118800BF3846BDE873
:103E8000F08170B523E0FFF7EDFDDD48006808B96B
:103E9000012000E000200546FFF718FDBDB9FFF73F
:103EA000D6F9D748C068C468201DFFF735FBD54850
:103EB0000068401ED3490860D3480068401ED249BC
:103EC0000860FFF7D3F92046FFF72DFC00BFCE486E
:103ED00000680028D7D170BD00BFFFF7D2FFC648E9
:103EE00000680128F9D94FF08050BF490860BFF33E
:103EF0004F8FBFF36F8FF0E71CB5C44800210B460E
:103F00008022CDE90010C2A1C348FFF7C7FB0446D9
:103F1000012C14D100BFBF2080F31188BFF34F8F55
:103F2000BFF36F8F00BF4FF0FF30BC490860012026
:103F3000BB4908600020BB490860FFF772F91CBD4F
:103F400010B500BFBF2080F31188BFF34F8FBFF3C0
:103F50006F8F00BF0020B2490860FFF777F910BDEE
:103F6000B049086870470021AE4A10687047A548FC
:103F700000687047014611B99D48006800E0084696
:103F8000024602F13400704770B505460C46984869
:103F9000016818312846FFF7A5FA01212046FFF7EE
:103FA00023FD70BD70B506460C46154644F0004032
:103FB0008F49096888618E48016818313046FFF7DB
:103FC00085FA01212846FFF70FFD70BD70B5064642
:103FD000F068C46804F11800FFF79EFA834800688F
:103FE000A8B9201DFFF798FA94F82C1001208840FA
:103FF0008049096808437F490860E16A01EB810153
:104000007D4A02EB8100211DFFF760FA04E004F114
:1040100018017A48FFF75AFA7549E06A0968C96ACF
:10402000884204D9012501207F49086000E000256D
:10403000284670BD2DE9F04105460F4647F0004087
:104040002860EC682846FFF767FA201DFFF764FA3E
:1040500094F82C1001208840664909680843654996
:104060000860E16A01EB8101634A02EB8100211DD6
:10407000FFF72CFA5E49E06A0968C96A884204D9E8
:10408000012601206849086000E000263046BDE8AE
:10409000F0816649096801606249096841607047BA
:1040A00070B504460D46FFF7D2F85E4802682868EE
:1040B000401C08B9002619E05C492068096888425C
:1040C00004D06068904201D801260FE06068101AA1
:1040D0002968884209D228686168511A401A286004
:1040E0002046FFF7D6FF002600E00126FFF7BEF8C6
:1040F000304670BD01204C49086070473C49096852
:1041000088693B490968C96AC1F10501384A1268E2
:104110009161704770B506460D46FFF798F8344830
:104120000068406C88B901203149096881F848006D
:104130005DB101212846FFF757FC4FF080502A4916
:104140000860BFF34F8FBFF36F8FFFF78FF8FFF754
:104150007EF827480068446C4CB126B10020244901
:104160000968486403E0601E21490968486400202A
:104170001F49096881F84800FFF778F8204670BDAC
:104180002DE9F0410746884614461D46FFF75FF8C3
:104190001748006890F84800022818D014490968A8
:1041A00001F14400496CB9430160012010490968DC
:1041B00081F848005DB101212846FFF715FC4FF05A
:1041C000805009490860BFF34F8FBFF36F8FFFF72F
:1041D0004DF8FFF73CF81CB105480068406C2060C2
:1041E0000348006824E0000004ED00E09400002093
:1041F0005C000020740000209C4400202845002022
:104200003C4500206C000020680000209000002049
:1042100049444C4500000000D93E00088C000020B5
:104220007800002070000020800000208400002022
:1042300090F84800012801D1002608E0A14909684A
:1042400001F14400496C21EA0801016001260020C7
:104250009C49096881F84800FFF708F83046BDE836
:10426000F0812DE9F04781460D4616461F464FF076
:10427000010A4C46FEF7EBFF0FB1606C386094F812
:104280004880022084F84800052E17D2DFE806F0A7
:104290001503070B0D00606C284360640EE0606C32
:1042A000401C60640AE0656408E0B8F1020F01D0C8
:1042B000656401E04FF0000A00E000BF00BFB8F104
:1042C000010F22D1201DFFF727F994F82C100120AF
:1042D00088407D49096808437B490860E16A01EB31
:1042E00081017A4A02EB8100211DFFF7EFF8754941
:1042F000E06A0968C96A884207D94FF0805074495A
:104300000860BFF34F8FBFF36F8FFEF7AFFF5046CC
:10431000BDE8F0872DE9F84F82460D4616461F4648
:10432000DDF828B001200090544600BFBF21EFF314
:10433000118081F31188BFF34F8FBFF36F8F00BFE0
:1043400081460FB1606C386094F84880022084F890
:104350004800052E17D2DFE806F01503070B0D0005
:10436000606C284360640EE0606C401C60640AE08E
:10437000656408E0B8F1020F01D0656401E0002037
:10438000009000E000BF00BFB8F1010F2DD15148EF
:104390000068A8B9201DFFF7BFF894F82C10012081
:1043A000884049490968084347490860E16A01EBC8
:1043B0008101464A02EB8100211DFFF787F804E0E6
:1043C00004F118014448FFF781F83E49E06A0968A2
:1043D000C96A884209D9BBF1000F03D00120CBF88C
:1043E000000002E001203D49086000BF89F3118808
:1043F00000BF0098BDE8F88F2DE9F04105460E4654
:104400002C4600BFBF21EFF3118081F31188BFF369
:104410004F8FBFF36F8F00BF074694F8488002208C
:1044200084F84800606C401C6064B8F1010F2AD128
:1044300028480068A8B9201DFFF76EF894F82C10E2
:10444000012088402049096808431F490860E16A43
:1044500001EB81011D4A02EB8100211DFFF736F8B7
:1044600004E004F118011C48FFF730F81549E06A30
:104470000968C96A884206D916B10120306002E095
:1044800001201649086000BF87F3118800BFBDE80E
:10449000F08170B5054615B90A48006800E0284665
:1044A0000646FEF7D4FE96F84800022804D1002004
:1044B00086F84800012400E00024FEF7D7FE2046DD
:1044C00070BD00005C000020740000209C440020AF
:1044D00004ED00E09400002028450020800000202A
:1044E00030B50B46014600202022012409E021FAC4
:1044F00002F59D4205D303FA02F5491B04FA02F5C1
:104500002844151EA2F10102F1DC30BD064C074D16
:1045100006E0E06840F0010394E807009847103493
:10452000AC42F6D3FBF7E6FD104F0008304F000811
:104530000FB4054B10B503A9044A029800F02CF8FB
:1045400010BC5DF814FB0000792B000898000020D7
:104550000FB4084B10B504A902AA039800F01CF888
:10456000044602A9002000F0C1F8204610BC5DF806
:1045700014FB0000ED46000802E008C8121F08C145
:10458000002AFAD170477047002001E001C1121FD4
:10459000002AFBD1704700002DE9FF4F89B09B46F0
:1045A0000446002506E025280BD05A460B99904773
:1045B000641C6D1C20780028F5D10DB02846BDE89C
:1045C000F08F0027B8460122474900E0074314F85E
:1045D000013F203B02FA03F00842F7D120782E2851
:1045E00019D114F8010F47F004072A280ED06FF0F4
:1045F0002F022078A0F1300109290CD808EB88019E
:1046000002EB410100EB0108641CF2E70A98641C0C
:1046100050F8048B0A9020780028CED0642808D067
:10462000692806D075281ED05A460B9990476D1CF4
:1046300058E00A994FF00A0901C90A91002802DAE4
:1046400040422D2102E0390504D52B218DF82010A0
:10465000012103E0F90704D02021F7E78A4608AEDC
:104660000DE00021FAE70A994FF00A0901C90A9101
:10467000F7E74946FFF734FF303106F8011D0028FF
:10468000F7D1ADEB060000F12009780701D44FF017
:104690000108C84502DDA8EB090000E000208046C3
:1046A000002706E008A85A46C05D0B9990476D1C8C
:1046B0007F1C5745F6DB04E030205A460B999047A3
:1046C0006D1CB8F10001A8F10108F5DC05E016F851
:1046D000010B5A460B9990476D1CB9F10001A9F1E5
:1046E0000109F4DC641C65E7092801000A68531C11
:1046F0000B60107070470000000000000000002FE9
:10470000000000000700070000147F147F1400243D
:104710002A7F2A120062640813230036495522506A
:1047200000000503000000001C224100000041229F
:104730001C000014083E08140008083E0808000089
:1047400000A0600000080808080800006060000081
:10475000002010080402003E5149453E0000427FFF
:104760004000004261514946002141454B3100184B
:1047700014127F10002745454539003C4A4949300D
:1047800000017109050300364949493600064949C7
:10479000291E0000363600000000563600000008D2
:1047A00014224100001414141414000041221408AF
:1047B00000020151090600324959513E007C121194
:1047C000127C007F49494936003E41414122007F29
:1047D0004141221C007F49494941007F09090901E3
:1047E000003E4149497A007F0808087F0000417F68
:1047F0004100002040413F01007F08142241007F1A
:1048000040404040007F020C027F007F0408107F80
:10481000003E4141413E007F09090906003E4151E9
:10482000215E007F091929460046494949310001A6
:10483000017F0101003F4040403F001F2040201FFA
:10484000003F4038403F00631408146300070870BD
:10485000080700615149454300007F414100005570
:104860002A552A55000041417F000004020102043C
:104870000040404040400000010204000020545429
:104880005478007F48444438003844444420003879
:104890004444487F00385454541800087E090102EB
:1048A0000018A4A4A47C007F080404780000447DC0
:1048B0004000004080847D00007F102844000000FC
:1048C000417F4000007C04180478007C08040478D0
:1048D00000384444443800FC2424241800182424BC
:1048E00018FC007C080404080048545454200004B8
:1048F0003F444020003C4040207C001C2040201CC5
:10490000003C4030403C004428102844001CA0A03B
:10491000A07C004464544C44141414141414000077
:104920000000000000000000000000000000000087
:1049300000F800000000000000333000000000100C
:104940000C06100C0600000000000000000040C033
:104950007840C0784000043F04043F040400007025
:1049600088FC08300000001820FF211E0000F0081D
:10497000F000E018000000211C031E211E0000F0C2
:104980000888700000001E2123241927211010160A
:104990000E00000000000000000000000000000009
:1049A00000E0180402000000000718204000000288
:1049B0000418E000000000402018070000004040FC
:1049C00080F0804040000202010F0102020000005E
:1049D00000F0000000000101011F010101000000C2
:1049E00000000000000080B0700000000000000027
:1049F00000000000000000010101010101010000B0
:104A00000000000000000030300000000000000046
:104A1000000080601804006018060100000000E03B
:104A200010080810E000000F102020100F000010E8
:104A300010F8000000000020203F2020000000703F
:104A40000808088870000030282422213000003037
:104A50000888884830000018202020110E0000002F
:104A6000C02010F8000000070424243F240000F8B0
:104A70000888880808000019212020110E0000E095
:104A8000108888180000000F112020110E00003837
:104A90000808C83808000000003F0000000000704F
:104AA000880808887000001C222121221C0000E0D8
:104AB00010080810E0000000312222110F00000051
:104AC00000C0C00000000000003030000000000006
:104AD0000080000000000000806000000000000076
:104AE000804020100800000102040810200040400F
:104AF0004040404040000404040404040400000852
:104B00001020408000000020100804020100007006
:104B100048080808F0000000003036010000C030EE
:104B2000C828E810E0000718272423140B00000011
:104B3000C038E0000000203C23020227382008F89B
:104B4000888888700000203F202020110E00C0308F
:104B5000080808083800071820202010080008F866
:104B600008080810E000203F202020100F0008F85F
:104B70008888E8081000203F20202320180008F82B
:104B80008888E8081000203F200003000000C030A3
:104B900008080838000007182020221E020008F824
:104BA00008000008F808203F210101213F200008EB
:104BB00008F8080800000020203F20200000000026
:104BC0000808F8080800C08080807F00000008F80E
:104BD00088C028180800203F20012638200008F847
:104BE000080000000000203F20202020300008F8AE
:104BF000F800F8F80800203F003F003F200008F8C8
:104C000030C00008F808203F200007183F00E010DF
:104C100008080810E0000F10202020100F0008F8EE
:104C200008080808F000203F210101010000E01001
:104C300008080810E0000F18242438504F0008F826
:104C4000888888887000203F2000030C3020007086
:104C50008808080838000038202121221C00180884
:104C600008F8080818000000203F2000000008F89D
:104C700008000008F808001F202020201F000878E6
:104C8000880000C83808000007380E010000F80846
:104C900000F80008F800033C0700073C0300081870
:104CA00068808068180820302C03032C30200838D6
:104CB000C800C83808000000203F2000000010088D
:104CC0000808C838080020382621202018000000D5
:104CD00000FE020202000000007F40404000000C85
:104CE00030C000000000000000010638C0000002D3
:104CF0000202FE000000004040407F000000000073
:104D00000402020204000000000000000000000095
:104D10000000000000008080808080808080000291
:104D2000020400000000000000000000000000007D
:104D30008080808000000019242222223F2008F871
:104D4000008080000000003F112020110E000000B4
:104D5000008080800000000E112020201100000043
:104D600000808088F800000E112020103F200000F5
:104D7000808080800000001F2222222213000080F9
:104D800080F0888888180020203F20200000000044
:104D9000808080808000006B94949493600008F879
:104DA000008080800000203F210000203F20008004
:104DB0009898000000000020203F20200000000004
:104DC00000809898000000C08080807F000008F874
:104DD000000080808000203F24022D302000000849
:104DE00008F8000000000020203F20200000808004
:104DF000808080808000203F20003F20003F808016
:104E0000008080800000203F210000203F20000023
:104E1000808080800000001F202020201F008080D4
:104E200000808000000080FFA12020110E00000003
:104E3000008080808000000E112020A0FF808080F4
:104E400080008080800020203F21200001000000A1
:104E50008080808080000033242424241900008076
:104E600080E0808000000000001F20200000808083
:104E7000000000808000001F202020103F20808044
:104E800080000080808000010E30080601008080D4
:104E90000080008080800F300C030C300F000080F9
:104EA0008000808080000020312E0E312000808024
:104EB00080000080808080818E7018060100008054
:104EC0008080808080000021302C22213000000072
:104ED0000000807C020200000000003F4040000013
:104EE0000000FF00000000000000FF0000000002C2
:104EF000027C800000000040403F000000000006EF
:104F00000101020204040000000000000000000093
:104F1000304F0008000000209C0000007845000889
:104F2000CC4F00089C000020CC48000088450008B9
:104F300000A24A0400000000000000000102030477
:104F4000060708090000000001020304010203042F
:104F500006070809020406080102030405060708FB
:104F6000090A0B0C0D0E0F10111213140000000093
:104F7000AAAAAAAA00000000000000000000000089
:104F80000000000000000000000000000000000021
:104F90000000000000000000000000000000000011
:104FA0000000000000000000000000000000000001
:104FB00000000000000000000000000000000000F1
:0C4FC000000000000000000000000000E5
:04000005080000ED02
:00000001FF
