:020000040800F2
:10000000504900209D010008F9160008FB16000861
:10001000FF1600080317000807170008000000007B
:10002000000000000000000000000000AF01000818
:100030000B17000800000000B30100080D170008AE
:10004000B7010008B7010008B7010008B7010008B0
:10005000B7010008B7010008B7010008B7010008A0
:10006000B7010008B7010008B7010008B701000890
:10007000B7010008B7010008B7010008B701000880
:10008000B7010008B7010008B7010008B701000870
:10009000B7010008B7010008B7010008B701000860
:1000A000B7010008B7010008B7010008B701000850
:1000B000B7010008B7010008B7010008B701000840
:1000C000B7010008B7010008B7010008B701000830
:1000D000B7010008B7010008B7010008B701000820
:1000E000B7010008B7010008B7010008DFF810D019
:1000F00003F03CF80048004795160008AFF3008075
:1001000050490020224B19680868B0E8F00F80F3CE
:100110000988BFF36F8F4FF0000080F311884EF015
:100120000D0E70470000000006480068006880F36C
:10013000088862B661B6BFF34F8FBFF36F8F00DFE1
:1001400000BF00BF08ED00E0EFF30980BFF36F8F41
:100150000F4B1A6820E9F00F106008B54FF0BF0090
:1001600080F31188BFF34F8FBFF36F8F02F075FBE1
:100170004FF0000080F31188BDE808401968086856
:10018000B0E8F00F80F30988BFF36F8F704700BFAE
:1001900044000020EFF305807047000006488047C8
:1001A00006480047FEE7FEE7FEE7FEE7FEE7FEE75C
:1001B000FEE7FEE7FEE7FEE79F020008ED0000080D
:1001C0000CB50020019000906C48006840F480302D
:1001D0006A49086000BF6948006800F40030009078
:1001E0000198401C0190009818B90198B0F5A06FD3
:1001F000F1D16248006800F4003010B10120009095
:1002000001E0002000900098012843D15C4800687C
:1002100040F010005A4908600846006820F00300CA
:1002200008600846006840F00200086053484068D3
:10023000524948600846406848600846406840F4B3
:10024000806048600846406820F47C10486008469A
:10025000406840F4E81048600846006840F080704C
:10026000086000BF4548006800F000700028F9D021
:100270004248406820F00300404948600846406812
:1002800040F00200486000BF3C48406800F00C00AD
:100290000828F9D10CBD10B5FFF792FF10BD10B5BD
:1002A0003648006840F0010034490860084640685C
:1002B00034490840314948600846006832490840DE
:1002C0002E4908600846006820F48020086008462F
:1002D000406820F4FE0048604FF41F008860FFF77C
:1002E000DAFF4FF000602949086010BD10B5002109
:1002F00000200022214B5B6803F00C0121B104298E
:1003000006D0082928D107E0214B224C236027E0A2
:100310001F4B204C236023E0184B5B6803F47010E4
:10032000164B5B6803F48032022303EB904022B942
:10033000194B4343174C23600DE0104B5B6803F4EB
:10034000003323B1144B4343124C236003E0104BA2
:100350004343104C236003E00D4B0E4C236000BF61
:1003600000BF064B5B68C3F303130C4CE15C094B05
:100370001B68CB40074C236010BD000000100240FA
:10038000002002400000FFF8FFFFF6FE08ED00E04D
:1003900000127A000000002000093D000400002047
:1003A00031490143314A1160704770B50021002383
:1003B0000F22C47804B32D4C246804F4E064C4F51F
:1003C000E064210AC1F10403CA40447804FA03F14D
:1003D0008478144021430901254C0678A1550478FE
:1003E00004F01F050124AC4005786D11AD0005F146
:1003F000E025C5F8004109E0047804F01F05012458
:10040000AC401C4D0678761145F8264070BD1A4A5E
:100410000A400243154B1B1F1A60704739B1134A3B
:10042000121D12680243114B1B1D1A6006E00F4A91
:10043000121D126882430D4B1B1D1A607047042861
:1004400008D14FF0E021096941F004014FF0E022AA
:10045000116107E04FF0E021096921F004014FF03C
:10046000E0221161704700000000FA050CED00E089
:1004700000E400E080E100E080FFFF1F10B50446CB
:10048000CC48844208D10121042000F02FFD002136
:10049000042000F02BFD46E0C748844208D101212A
:1004A000082000F023FD0021082000F01FFD3AE0A5
:1004B000C248844208D10121102000F017FD00211C
:1004C000102000F013FD2EE0BD48844208D1012128
:1004D000202000F00BFD0021202000F007FD22E08D
:1004E000B848844208D10121402000F0FFFC0021DF
:1004F000402000F0FBFC16E0B348844208D1012103
:10050000802000F0F3FC0021802000F0EFFC0AE0E6
:10051000AE48844207D10121801500F0E7FC00219C
:10052000A01500F0E3FC10BD10B50121084600F055
:10053000DDFC0021012000F0D9FC10BD2DE9F041C7
:10054000024600250026002000230024002791F801
:1005500003C00CF00F0591F803C00CF0100CBCF1B7
:10056000000F03D091F802C04CEA050591F800C0D5
:10057000BCF1000F31D0146800202BE04FF0010CCB
:100580000CFA00F3B1F800C00CEA03069E4220D139
:1005900083004FF00F0C0CFA03F7BC4305FA03FC81
:1005A0004CEA040491F803C0BCF1280F06D14FF0C7
:1005B000010C0CFA00FCC2F814C00AE091F803C068
:1005C000BCF1480F05D14FF0010C0CFA00FCC2F849
:1005D00010C0401C0828D1D31460B1F800C0BCF191
:1005E000FF0F34DD546800202EE000F1080C4FF0BE
:1005F000010808FA0CF3B1F800C00CEA03069E42A9
:1006000021D183004FF00F0C0CFA03F7BC4305FA1D
:1006100003FC4CEA040491F803C0BCF1280F05D197
:1006200000F1080C08FA0CF8C2F8148091F803C025
:10063000BCF1480F07D100F1080C4FF0010808FA8F
:100640000CF8C2F81080401C0828CED35460BDE8D6
:10065000F0814FF6FF710180022181700421C17089
:1006600070470246002093680B400BB1012000E068
:10067000002070470146886880B27047024600201B
:10068000D3680B400BB1012000E000207047014609
:10069000C86880B2704701617047416170470AB114
:1006A000016100E041617047C16070474FF48032E2
:1006B0000A43826181618261826982697047024670
:1006C0000020434B18684FF68073184040EA021030
:1006D00008433F4B186070473E49C8617047F0B50A
:1006E0000A46002300240021002500F00046B6F150
:1006F000004F02D1364EF16901E0354E7168C0F30A
:10070000034583B200F44016B6F5401F08D121F02E
:1007100070612F4E766826F070662D4F7E6012E075
:1007200000F48016B6F5801F06D1032606FA05F4FC
:10073000A14341F0706106E0460D360103FA06F66A
:10074000B14341F0706122B1460D360103FA06F65D
:10075000314300F00046B6F1004F02D11C4EF1616A
:1007600001E01B4E7160F0BD30B500228B071C0FFD
:100770000F2303FA04F2164B08338C1053F824307D
:100780009343134C08348D1044F8253023468C10C5
:1007900053F824308C07240F00FA04F423430C4C44
:1007A00008348D1044F8253030BD0A49DC3108602A
:1007B0007047000000080140000C0140001001409B
:1007C0000014014000180140001C014000200140BD
:1007D000000001400000204210B50446F748844262
:1007E00009D10121480500F08EFB00214FF40010D3
:1007F00000F089FB08E00121880500F084FB00215E
:100800004FF4800000F07FFB10BD2DE9F04385B070
:1008100004460D460026B1460427DFF8A483A688C7
:100820004FF6C0700640684600F0D9FADDF808803F
:10083000E448B8FBF0F01FFA80F946EA0906A68002
:1008400020884FF6FE71084020800026DE49286887
:1008500088420CD828684000B8FBF0F087B2042F1B
:1008600000DA04273E4309F10100208427E0E888EC
:100870004BF6FF71884206D1286800EB4000B8FBB8
:10088000F0F087B209E0286800EBC00101EB00102E
:10089000B8FBF0F087B247F48047C7F30B0008B904
:1008A00047F0010747F4004006434FF4967009FBF8
:1008B00000F04FF47A7190FBF1F0401C2084A68385
:1008C000208840F00100208026884FF6F530064051
:1008D000A8886989084306432680A889298908438E
:1008E000208105B0BDE8F08341F28831016000212C
:1008F00081804BF6FF71C1800021018141814FF45D
:1009000080418181704721B1028842F0010202805A
:1009100004E002884FF6FE731A400280704721B14E
:10092000828842F40062828004E082884FF2FF7382
:100930001A408280704721B1828842F480528280BE
:1009400004E082884EF6FF731A408280704721B11E
:10095000028842F48072028004E002884FF6FF634E
:100960001A400280704721B1028842F4007202806E
:1009700004E002884FF6FF531A400280704721B10D
:10098000028842F48062028004E002884FF6FF335E
:100990001A40028070470A46002181894FF6017390
:1009A000194002F0FE0319438181704721B1828909
:1009B00042F00102828104E082894FF6FE731A4000
:1009C0008281704721B1028842F04002028004E037
:1009D00002884FF6BF731A40028070471AB18388AD
:1009E0000B43838002E083888B43838070470182BE
:1009F00070470146088AC0B2704712B141F0010148
:100A000002E04FF6FE7319400182704708B50246B6
:100A10000020009000920098084400900098008800
:100A200008BD21B1028842F40042028003E002883E
:100A3000C2F30E0202807047B1F5006F04D1028844
:100A400042F40062028004E002884FF2FF731A4011
:100A500002807047B1F5005F04D1028842F4005271
:100A6000028004E002884DF6FF731A40028070474E
:100A700021B1028842F48052028004E002884EF6DE
:100A8000FF731A4002807047B1F5006F04D10288ED
:100A900042F40062028004E002884FF2FF731A40C1
:100AA0000280704721B1028842F02002028004E0F7
:100AB00002884FF6DF731A40028070470146088BA8
:100AC0000012704721B1028842F01002028004E057
:100AD00002884FF6EF731A400280704721B90288EE
:100AE00042F08002028004E002884FF67F731A40D1
:100AF00002807047B1F5804F05D0828B4BF6FF73B3
:100B00001A40828303E0828B42F4804282837047E2
:100B100070B502460024002500230020958A138B1F
:100B20001B0445EA030626F07F4404EA01068E42D0
:100B300001D1012000E0002070BD10B50146002069
:100B4000002300228B8A0A8B120443EA020424F059
:100B50007F4010BD0CB50246002000230193009396
:100B600000920B0F019321F07F41019B1BB1009B71
:100B70001433009303E0090C009B18330093009B8F
:100B80001B680B400BB1012000E000200CBD0022CF
:100B900021F07F42D3438382704730B50246002064
:100BA0000023948801F0E06504EA154321F07F41B9
:100BB000948A0C4054B14BB1012008E0005400402D
:100BC00000127A0040420F00A0860100002030BDD4
:100BD000002221F07F42D34383827047DF480068C0
:100BE00040F00100DD49086008464068DC490840E3
:100BF000DA49486008460068DA490840D749086081
:100C00000846006820F4802008600846406820F408
:100C1000FE0048604FF41F0088607047CF490968A4
:100C200021F48031CD4A11601146096821F48021F8
:100C30001160B0F5803F03D0B0F5802F0ED106E0F3
:100C4000C649096841F48031C44A116007E0C349CC
:100C5000096841F4A021C14A116000E000BF00BF53
:100C6000704710B501460022002300204A11012AD6
:100C700002D1BA4C236806E0022A02D1B74C236A9B
:100C800001E0B64C636A01F01F02012494401C404D
:100C90000CB1012000E0002010BD38B5002000900C
:100CA0000024002500BF3120FFF7DBFF0546009838
:100CB000401C00900098B0F5A06F01D0002DF2D03C
:100CC0003120FFF7CEFF08B1012400E000242046C8
:100CD00038BD01460020A14A106820F0F80040EA23
:100CE000C10010607047A0490860704702460020AC
:100CF0009A4B586820F47C1042EA01031843974B42
:100D00005860704798490866704701460020934A2A
:100D1000506820F003000843506070478F484068D7
:100D200000F00C007047014600208C4A506820F00B
:100D3000F00008435060704701460020874A506821
:100D400020F4E06008435060704701460020834A69
:100D5000506820F4605040EAC1005060704729B1EB
:100D60007E4A527A02437D4B5A7204E07B4A527AA1
:100D700082437A4B5A7270477B49D831086070477A
:100D800001460020754A506820F4404008435060F6
:100D900070470021714A20321170704A82F8201089
:100DA000012802D004280AD104E001216B4A203234
:100DB000117005E00521694A2032117000E000BF82
:100DC00000BF70476949086070476449096A014378
:100DD000624A11627047654944390860704730B50E
:100DE00000210022002400235C4D6D6805F00C01F9
:100DF00021B1042905D0082923D105E05C4D056007
:100E000022E05B4D05601FE0544D6D6805F47012E3
:100E1000524D6D6805F48034022505EB92421CB9F1
:100E2000544D554305600BE04C4D6D6805F400359D
:100E30001DB1504D5543056002E04D4D55430560D1
:100E400002E04B4D056000BF00BF444D6D6805F0EA
:100E5000F0010909484D6B5C0568DD4045603F4D78
:100E60006D6805F4E061090A434D6B5C4568DD403F
:100E700085603A4D6D6805F46051C90A3E4D6B5C62
:100E80004568DD40C560354D6D6805F44041890B0E
:100E90003A4D6B5CC568B5FBF3F5056130BD29B112
:100EA0002E4A526902432D4B5A6104E02B4A526983
:100EB00082432A4B5A61704729B1284A92690243FA
:100EC000264B9A6104E0254A92698243234B9A613A
:100ED000704729B1214AD2690243204BDA6104E00C
:100EE0001E4AD26982431D4BDA61704729B11B4A01
:100EF000D2680243194BDA6004E0184AD268824390
:100F0000164BDA60704729B1144A12690243134B39
:100F10001A6104E0114A12698243104B1A6170474A
:100F200012494039086070470F49C86470470B493F
:100F3000C87170470948406A40F0807007494862AC
:100F4000704701460020054A92680A400AB1012014
:100F500000E000207047014988727047001002408D
:100F60000000FFF8FFFFF6FE00004242800442420C
:100F700000127A0000093D00140000202400002027
:100F800010B50446BE48844208D101218014FFF701
:100F9000ADFF0021A014FFF7A9FF16E0B948844275
:100FA00008D101210014FFF7AEFF00212014FFF744
:100FB000AAFF0AE0B448844207D10121C013FFF719
:100FC000A2FF0021E013FFF79EFF10BD10B5002225
:100FD000028802F441520B884C8823438C882343B7
:100FE000CC8823430C8923434C8923438C89234396
:100FF000CC8923431A430280838B4FF2FF74234032
:1010000083830B8A038210BD2DE9F04F85B005461E
:101010000C464FF0000902274FF000084FF0010B7B
:101020000026B246A88B4FF240010840A883022058
:101030002884B5F81C90A068022801D100BF38E0D0
:10104000A08810B94FF0010B01E04FF0020B8D4862
:10105000854200D100E000BF6846FFF7C0FEDDF822
:1010600000A0E088B0F5007F0AD14FEA1A2000EB1B
:1010700080004000A168B0FBF1F0401D86B20BE09B
:101080004FEA4B10BAFBF0F000EB80004000A16883
:10109000B0FBF1F0401D86B20A20B6FBF0F606F078
:1010A0000108A6EB0800C0F34F074FF6FF7000EAF7
:1010B0000828022F01DBFF2F02DD02274FF0000876
:1010C000E08840EA080038432884A088A1890843C2
:1010D000618808432188084340F4006040EA090918
:1010E000A5F81C9005B0BDE8F08F0021018041807B
:1010F0008180C180018141818181C181072101827B
:1011000070470021018041808180C180022181607F
:1011100000218181704721B1028842F040020280A3
:1011200004E002884FF6BF731A400280704721B175
:10113000828B42F48062828304E0828B4FF6FF331D
:101140001A408283704730B5002400230C1101251A
:10115000A540ABB21AB185881D43858002E0858821
:101160009D43858030BD1AB183880B43838002E0A4
:1011700083888B43838070478181704701468889CB
:1011800070474FF6FF62914204D0028842F48072A9
:10119000028004E002884FF6FF631A400280704725
:1011A00021B1828842F00402828004E082884FF6F6
:1011B000FB731A408280704702884FF2FF731A4017
:1011C000028002880A4302807047018841F48051FE
:1011D0000180704721B1028842F40052028004E08D
:1011E00002884DF6FF731A400280704702460020C5
:1011F000012901D0108B00E0908A70470146088ACF
:101200007047B1F5804F04D1028842F480420280D9
:1012100004E002884BF6FF731A40028070470246D2
:10122000002013890B400BB1012000E00020704723
:10123000CA4302817047F0B5024600200024002313
:10124000002501F00F070126BE40B4B20B110126A4
:101250009E40B3B2968806EA03051689264016B169
:101260000DB1012000E00020F0BD10B5002201F01A
:101270000F040123A3409AB2D343038110BD0000A1
:101280000030014000380040003C004010B50446EA
:10129000FB48844209D101218803FFF727FE002182
:1012A0004FF48040FFF722FE32E0F648844209D135
:1012B00001214804FFF727FE00214FF40030FFF71B
:1012C00022FE25E0F048844209D101218804FFF77D
:1012D0001AFE00214FF48020FFF715FE18E0EB48BE
:1012E000844209D10121C804FFF70DFE00214FF40B
:1012F0000020FFF708FE0BE0E548844208D10121F9
:101300000805FFF700FE00214FF48010FFF7FBFDFA
:1013100010BD2DE9F04786B005460E460024A246D2
:1013200000BFA1460027B08900B100BF2F462C8A1C
:101330004CF6FF700440F08804432C82AC894EF6D2
:10134000F3100440B088318908437189084304438D
:10135000AC81AC8A4FF6FF400440B0890443AC82B4
:1013600001A8FFF73CFDC648874202D1DDF810A076
:1013700001E0DDF80CA0A88900F4004040B10AEBC0
:10138000CA0000EB0A1031684900B0FBF1F807E031
:101390000AEBCA0000EB0A1031688900B0FBF1F8D3
:1013A0006420B8FBF0F004012009642101FB1089DE
:1013B000A88900F4004040B1322000EBC900B0FB26
:1013C000F1F000F00700044308E0322000EB0910C0
:1013D0006421B0FBF1F000F00F0004432C8106B053
:1013E000BDE8F0874FF41651016000218180C18073
:1013F00001810C21418100218181704710B5024695
:101400000020108A4FF2FF0318400B884C882343BA
:101410008C882343CC8823431843108210BD0021BD
:10142000018041808180C180704721B1828942F46E
:101430000052828104E082894DF6FF731A40828156
:101440007047F0B50346002400260025002040F632
:101450006A17B94200D100BF1846C1F3421401F027
:101460001F06012707FA06F5012C01D10C3004E014
:10147000022C01D1103000E014301AB107682F435C
:10148000076002E00768AF430760F0BD1AB1838AC6
:101490000B43838202E0838A8B4383827047028AF4
:1014A0004FF6F0731A400282028A0A4302827047A2
:1014B00082894FF2FF731A40828182890A438281B6
:1014C000704721B1828942F00202828104E0828960
:1014D0004FF6FD731A4082817047028A4FF6DF7320
:1014E0001A400282028A0A430282704721B1028AAC
:1014F00042F48042028204E0028A4BF6FF731A40F3
:1015000002827047C1F308028280704701468888D2
:10151000C0F308007047818941F001018181704763
:10152000028BD2B20283028B42EA0122028370470D
:10153000028B02F47F420283028B0A4302837047CC
:1015400021B1828A42F02002828204E0828A4FF630
:10155000DF731A408282704721B1828A42F0100202
:10156000828204E0828A4FF6EF731A4082827047CB
:1015700021B1828A42F00802828204E0828A4FF618
:10158000F7731A408282704721B1828942F4004287
:10159000828103E08289C2F30E028281704721B109
:1015A000828A42F40062828204E0828A4FF2FF73F0
:1015B0001A4082827047828A4FF6FB731A408282F9
:1015C000828A0A438282704721B1828A42F00202F3
:1015D000828204E0828A4FF6FD731A40828270474D
:1015E00002460020B1F5007F00D100BF13880B40F8
:1015F0000BB1012000E00020704701F40072B2F549
:10160000007F00D100BFCA430280704770B5024618
:10161000002400230025002040F66A16B14200D1C4
:1016200000BFC1F3421501F01F03012606FA03F3C0
:10163000012D02D19689334006E0022D02D1168A8F
:10164000334001E0968A33400C12012606FA04F476
:101650001688344013B10CB1012000E0002070BDA9
:1016600010B50022002340F66A14A14200D100BF49
:101670000A1201249440A3B2DC43048010BD000090
:10168000003801400044004000480040004C004049
:10169000005000401CB500F03DF800F07EF800F06E
:1016A00073F900F0F5F900F082FA002000F05DFA1D
:1016B00000F04EFB00F083FB044608A103C9CDE90E
:1016C000000101236A461946184600F086FA03E035
:1016D000214604A001F07CFDFAE7000031323334EA
:1016E000353637000A573235513132385F49443D7B
:1016F000307825580D0A0000704700BFFEE700BF94
:10170000FEE700BFFEE700BFFEE7704710B500F040
:10171000CFFB10BD08B501210420FFF7CDFB02204F
:10172000ADF8000010208DF8030003208DF80200B2
:1017300069460F48FEF702FF0420ADF80000694635
:101740000B48FEF7FBFE0820ADF80000694608488C
:10175000FEF7F4FE02210648FEF79DFF042104482F
:10176000FEF799FF08210248FEF795FF08BD00002B
:101770000008014008B54FF4A060FEF711FE2520D7
:101780008DF8000001208DF801008DF802008DF821
:1017900003006846FEF709FE08BD00B585B00121CB
:1017A0000420FFF789FB01218803FFF785FB4FF435
:1017B0000070ADF8100018208DF8130003208DF88C
:1017C000120004A95248FEF7B9FE4FF48060ADF84C
:1017D000100004208DF8130004A94D48FEF7AEFE5A
:1017E0004FF4E13000900020ADF80400ADF80600A1
:1017F000ADF80800ADF80C000C20ADF80A00694601
:101800004448FFF786FDFFF7B5FF012240F225515E
:101810004048FFF716FE01213E48FFF706FE05B0DF
:1018200000BD70B504460D4629462046FFF76AFE06
:1018300000BF80212046FFF7D3FE0028F9D070BDFD
:101840002DE9F04107460D461646002405E0295DC6
:101850003846FFF7E6FF601CC4B2B442F7DB00BFB6
:1018600040213846FFF7BCFE0028F9D0BDE8F081E2
:1018700070B506460C46002500BF615D3046FFF797
:10188000D0FF6D1C605D0028F7D100BF40213046BD
:10189000FFF7A6FE0028F9D070BD2DE9F0410546FE
:1018A0000C46260AE7B231462846FFF72BFE00BF5A
:1018B00080212846FFF794FE0028F9D039462846B3
:1018C000FFF720FE00BF80212846FFF789FE002891
:1018D000F9D0BDE8F08170B504460D46E1B20D487F
:1018E000FFF710FE00BF80210A48FFF779FE0028AD
:1018F000F9D0204670BD10B5044600BF2021054830
:10190000FFF76EFE0028F9D00248FFF7FFFD10BD7B
:101910000008014000380140014601EBC1024FF0D0
:10192000E0235A6100229A6101221A6100BF4FF040
:10193000E022106900F001021AB100F48032002A9E
:10194000F5D000224FF0E0231A619A6170470146FA
:1019500042F228324A434FF0E0235A6100229A6152
:1019600001221A6100BF4FF0E022106900F001026D
:101970001AB100F48032002AF5D000224FF0E023A3
:101980001A619A617047000000B585B001210820F6
:10199000FFF792FA01214805FFF79BFA1C208DF80A
:1019A0001300C020ADF8100003208DF8120004A928
:1019B000C248FEF7C3FDC248FEF70EFF4FF4806039
:1019C000ADF80A000001ADF80C00BE4800904BF6DF
:1019D000FF70ADF806000020ADF804003020ADF82F
:1019E00008006946B648FEF710FF0121B448FEF72B
:1019F0008AFF05B000BD70B504460D4600BF4FF428
:101A00000031AF48FFF7A6F80028F8D10121AC4813
:101A1000FEF79DFF00BFAC49A948FFF779F8002801
:101A2000F9D000227821A648FEF7E7FF00BFA749BA
:101A3000A348FFF76DF80028F9D02146A048FEF72B
:101A4000D6FF00BFA149891E9D48FFF761F8002815
:101A5000F8D029469A48FEF7CAFF00BF9B49891E65
:101A60009748FFF755F80028F8D001219448FEF771
:101A70007AFF70BD10B5044621460020FFF7BBFF7A
:101A800010BD10B5044621464020FFF7B4FF10BD3D
:101A900010B56420FFF740FFAE20FFF7EBFF2020DA
:101AA000FFF7E8FF1020FFF7E5FFB020FFF7E2FFA8
:101AB000C820FFF7DFFF0020FFF7DCFF1020FFF753
:101AC000D9FF4020FFF7D6FF8120FFF7D3FFFF208B
:101AD000FFF7D0FFA120FFF7CDFFA620FFF7CAFF39
:101AE000A820FFF7C7FF3F20FFF7C4FFA420FFF7A0
:101AF000C1FFD320FFF7BEFF0020FFF7BBFFD520BB
:101B0000FFF7B8FFF020FFF7B5FFD920FFF7B2FFCE
:101B10002220FFF7AFFFDA20FFF7ACFF1220FFF71C
:101B2000A9FFDB20FFF7A6FF2020FFF7A3FF8D20F2
:101B3000FFF7A0FF1420FFF79DFFAF20FFF79AFFEC
:101B400010BD70B504460D4605F1B001C8B2FFF7EF
:101B500091FF102141EA1410FFF78CFF04F00F01F0
:101B600041F00100FFF786FF70BD70B50646002406
:101B700015E004F1B001C8B2FFF77CFF0020FFF7C9
:101B800079FF1020FFF776FF002504E03046FFF7CD
:101B900078FF681CC5B2802DF8DB601CC4B2082C2D
:101BA000E7DB70BD10B50020FFF7DFFF10BD10B5FB
:101BB000AF20FFF75FFF8D20FFF75CFF1420FFF7DA
:101BC00059FF10BD10B5AE20FFF754FF8D20FFF771
:101BD00051FF1020FFF74EFF10BD2DE9F0470646DC
:101BE000894617469A464FF0000800240025BAF1AE
:101BF000010F03D0BAF1020F5DD125E020E0785D3E
:101C0000203800F0FF087E2E04DD002609F10100D7
:101C100000F0FF0949463046FFF793FF002409E032
:101C200008EB48012A4A02EB4101085DFFF729FF52
:101C3000601CC4B2062CF3DBB01DC6B2681CC5B272
:101C4000785D0028DBD136E031E0785D203800F0A7
:101C5000FF08782E04DD002609F1010000F0FF09DD
:101C600049463046FFF76DFF002407E004EB0811FA
:101C7000184A505CFFF705FF601CC4B2082CF5DB66
:101C800009F10100C1B23046FFF75BFF082407E00D
:101C900004EB08110F4A505CFFF7F3FE601CC4B25E
:101CA000102CF5DB06F10800C6B2681CC5B2785DE1
:101CB0000028CAD100BF00BFBDE8F087000C01407A
:101CC00000540040801A0600010003008200070053
:101CD000D0340008F836000808B501210420FFF7C9
:101CE000EBF8E020ADF8000018208DF80300032089
:101CF0008DF8020069464248FEF720FC1020ADF83E
:101D000000008DF8030003208DF8020069463C486E
:101D1000FEF714FCF0213A48FEF7BDFC08BD10B5F3
:101D2000044600BF02213748FFF779FA0028F9D0AE
:101D300021463448FFF720FA00BF01213148FFF760
:101D40006EFA0028F9D02F48FFF718FAC0B210BD7C
:101D500000B585B0FFF7C0FF01210803FFF7ACF81D
:101D60000020ADF800004FF48270ADF802000020B2
:101D7000ADF804000220ADF806000120ADF808001F
:101D80004002ADF80A003820ADF80C000020ADF894
:101D90000E000720ADF8100069461A48FFF716F943
:101DA00001211848FFF7B7F9FF20FFF7B8FF05B08A
:101DB00000BD10B504462046FFF7B1FF10BD10B5B9
:101DC000002410210E48FEF768FC9020FFF7F1FF79
:101DD0000020FFF7EEFF0020FFF7EBFF0020FFF7EA
:101DE000E8FFFF20FFF7E5FF44EA0024FF20FFF7AC
:101DF000E0FF044310210248FEF74DFC204610BDD1
:101E0000000801400030014000BFBF2080F311886E
:101E1000BFF34F8FBFF36F8F00BF00BFFEE7001F00
:101E20004FF080730360001F21F001030360001F67
:101E30002B4B0360143802602038704729484FF05C
:101E4000E021486107200861704710B52648006806
:101E500040F47F00244908600846006840F07F4055
:101E60000860FFF7EBFF002020490860FEF75CF9EF
:101E7000002010BD704700BFBF2080F31188BFF362
:101E80004F8FBFF36F8F00BF18480068401C174981
:101E90000860704715480068401E144908600846ED
:101EA000006820B9002080F3118800BF00BF704790
:101EB00010B500BFBF2080F31188BFF34F8FBFF371
:101EC0006F8F00BF00F09FFA20B14FF0805006499D
:101ED0001C39086000BF002080F3118800BF10BDCE
:101EE000091E00083F19010020ED00E02800002035
:101EF00010B50146714800E0006803688B42FBD3CF
:101F00000246436813448B4204D143684C6823441F
:101F1000436001460A464B6813440468A34211D14A
:101F2000674C03682468A34208D04B68046864685F
:101F300023444B6003681B680B6005E0604B1B6823
:101F40000B6001E003680B60884200D0016010BDA7
:101F500030B54FF488435B4800F007042CB1C01D36
:101F600020F00700574C041B1B1B0246534C2260F9
:101F70000024524D6C60D018083820F00700504CF7
:101F8000206000244E4D2D686C604D4D2D682C60F6
:101F90001146441A4C604A4C24680C604A4D4C6807
:101FA0002C604A4D4C682C604FF00044484D2C602A
:101FB00030BD2DE9F04105464FF0000800F066FB0A
:101FC0003F48006808B9FFF7C3FF41480068284050
:101FD000002847D145B1083505F0070020B105F0CC
:101FE0000700C0F108000544002D3BD037480068C9
:101FF000854237D8314E3046046801E026462468D1
:102000006068A84202D220680028F7D12C480068F6
:10201000844227D0306800F108082068306060688A
:10202000401B102807D967196068401B78606560FD
:102030003846FFF75DFF254960680968081A23499B
:1020400008600846006820490968884203D21F4892
:1020500000681D4908601E4960680968084360609F
:102060000020206000F046FA4046BDE8F08170B5DF
:1020700006463546D6B1083D2C46154960680968C4
:10208000084098B1206888B9114960680968884398
:10209000606000F0FBFA0D496068096808440B496C
:1020A00008602046FFF724FF00F024FA70BD0748BF
:1020B0000068704704480068704770472C00002093
:1020C00034000020840000203C0000203800002064
:1020D0004000002000F1080141604FF0FF318160B5
:1020E00000F10801C1600161002101607047002119
:1020F0000161704742684A6093688B6093685960D9
:102100009160086103685B1C0360704710B502466C
:102110000B685C1C0CB9106907E002F1080000E0D4
:102120004068446824689C42FAD944684C604C6812
:10213000A160886041600A611468641C146010BD6D
:1021400001460A69D1E901309860D1E9010358607C
:102150005068884201D1886850600020086110688A
:10216000401E10601068704710B5002407E004EBB3
:102170008401FE4A02EB8100FFF7ACFF641C052CD2
:10218000F5D3FB48FFF7A6FFFA48FFF7A3FFFA488D
:10219000FFF7A0FFF948FFF79DFFF948FFF79AFF07
:1021A000F348F8490860F348F749086010BD10B5D6
:1021B0000446FFF760FEF5480068401CF3490860DC
:1021C000F348006840B9F2480460084600680128F6
:1021D0000DD1FFF7C9FF0AE0EE48006838B9EC48B6
:1021E0000068C06AE16A884201D8E9480460EA48A8
:1021F0000068401CE849086094F82C1001208840D1
:10220000E64909680843E5490860E16A01EB810194
:10221000D64A02EB8100211DFFF76CFFFFF73AFE63
:10222000DC48006868B1DA480068C06AE16A884240
:1022300007D24FF08050DA490860BFF34F8FBFF3E9
:102240006F8F10BD2DE9FF5F80460E469146DDE998
:102250000E7A109CA9F10100216B01EB800B2BF091
:10226000070B002507E0715D04F134004155705DF6
:1022700000B902E06D1C102DF5D300BF00214320F2
:102280000155052F00D30427E762201DFFF72FFF1C
:1022900004F11800FFF72BFF2461C7F10500A061CE
:1022A00064620020606484F8480041465846039AFE
:1022B000FFF7B5FD2060BAF1000F01D0CAF8004069
:1022C000BDE8FF9F2DE9FF4F85B080468946174640
:1022D000DDE912ABB800FFF76CFE064656B14C20A4
:1022E000FFF767FE04460CB1266304E03046FFF7B3
:1022F000BEFE00E000247CB10020CDE900ABCDE9BA
:1023000002403A4649464046089BFFF79BFF20465D
:10231000FFF74DFF012501E04FF0FF35284609B0DA
:10232000BDE8F08F97490968096809B9012100E003
:10233000002121B14FF0FF319A4A116006E0914926
:102340000968C968C868974A41681160704710B544
:102350000446206BFFF78BFE2046FFF788FE10BD7A
:1023600070B50546FFF787FD15B98948006800E09C
:1023700028460446201DFFF7E3FE78B9E06A00EB2B
:1023800080007A4951F8200040B994F82C100120BF
:10239000884082490968814380480160A06A18B179
:1023A00004F11800FFF7CCFE7B480068401C7A4916
:1023B000086077480068844209D1211D6F48FFF703
:1023C00099FE79480068401C7749086009E06F4829
:1023D0000068401E6D4908602046FFF7B8FFFFF710
:1023E000A1FFFFF757FD6B48006858B168480068C7
:1023F000844207D14FF0805069490860BFF34F8F86
:10240000BFF36F8F70BD2DE9F0410027674800686A
:10241000002863D166480068451C654805608DB991
:102420005848D0F800805848006856490860564817
:10243000C0F800805F480068401C5E490860FFF7F4
:1024400071FF00BF5748006885423BD300BF4D482D
:102450000068006808B9012000E0002020B14FF0BA
:10246000FF30504908602CE046480068C068C468E6
:102470006668B54202D24B48066022E0201DFFF795
:102480005FFEA06A18B104F11800FFF759FE94F836
:102490002C10012088404149096808433F490860E1
:1024A000E16A01EB8101314A02EB8100211DFFF756
:1024B00021FE3749E06A0968C96A8842C7D3012703
:1024C000C5E700BF32480068C06A00EB80002749BA
:1024D00051F82000012800D9012704E0364800689F
:1024E000401C354908603548006800B1012738466E
:1024F000BDE8F08170B500240026FFF7BCFC2B4836
:102500000068401E294908600846006800287BD101
:102510001E480068002877D024E01748C068C468C7
:1025200004F11800FFF70CFE201DFFF709FE94F8D8
:102530002C10012088401949096808431749086090
:10254000E16A01EB8101094A02EB8100211DFFF7DD
:10255000D1FD0F49E06A0968C96A884202D30120A7
:10256000164908600448006850BB2AE084440020F3
:10257000E8440020FC4400201045002024450020B1
:1025800038450020480000204C0000205400002066
:102590004400002060000020700000205C0000204B
:1025A00004ED00E074000020500000207C000020BA
:1025B000580000206C00002064000020680000200B
:1025C00001E0012000E000200028A6D00CB1FFF7B8
:1025D000A9FEFD48056865B100BFFFF714FF10B103
:1025E0000120FA4908606D1E002DF6D10020F64941
:1025F0000860F648006838B101263007F4490860E1
:10260000BFF34F8FBFF36F8FFFF744FC304670BDB1
:102610002DE9F04105460E46EE480768EE48006891
:10262000001DFFF78DFD50B9EB48006890F82C10A5
:1026300001208840E94909688143E8480160681C35
:1026400038B936B1E4480168091DE548FFF752FD85
:102650001AE07C19E04800684460BC4207D2DE48BA
:102660000168091DDF480068FFF750FD0CE0DA48FB
:102670000168091DDC480068FFF748FDDB48006879
:10268000844201D2D9480460BDE8F081D84800688E
:10269000401CD749086070472DE9F047044688463A
:1026A0004FF00009FFF7F2FFCA480668206800EB08
:1026B00008052068B04207D92068A8420BD9B54266
:1026C00009D94FF0010906E02068A84201D8B542B7
:1026D00001D94FF001092560B9F1000F03D0A81B03
:1026E0000021FFF795FFFFF705FF07463FB94FF0C1
:1026F0008050B7490860BFF34F8FBFF36F8FBDE8BD
:10270000F08770B50446002544B1FFF7BFFF0021F4
:102710002046FFF77DFFFFF7EDFE05463DB94FF080
:102720008050AB490860BFF34F8FBFF36F8F70BD10
:1027300070B50446FFF79FFB14B9A748006800E096
:1027400020460646F56AFFF7A5FB284670BD70B522
:10275000024600BFBF25EFF3118485F31188BFF354
:102760004F8FBFF36F8F00BF214612B99A4C246878
:1027700000E014462346D86A00BF81F3118800BFE9
:1027800070BD2DE9F04780460D464FF00009052D3C
:1027900000D30425FFF76FFBB8F1000F02D18E487C
:1027A000006800E040460446E66AAE4251D0B542B9
:1027B0000BD98948006884420DD087480068C06AF8
:1027C000A84208D84FF0010905E083480068844218
:1027D00001D14FF00109E76AE562A06900F000400D
:1027E00010B9C5F10500A06107EB8701814A02EB32
:1027F00081016069884201D1012000E00020E0B140
:10280000201DFFF79DFC30B90120B84073490968CD
:1028100081437248016094F82C10012088406F4970
:10282000096808436D490860E16A01EB8101714A5A
:1028300002EB8100211DFFF75DFCB9F1000F07D00D
:102840004FF0805062490860BFF34F8FBFF36F8F26
:1028500000BFFFF71FFBBDE8F0876548006818B1AF
:1028600001205A4908601DE00020584908605B4873
:102870000068B0FA80F0C0F11F0101EB81025D4BEE
:1028800003EB820042685268426000F1080243682C
:10289000934202D14268526842604268D2684E4B0D
:1028A0001A6000BF704770B50546FFF7E4FA15B926
:1028B0004948006800E028460446201DFFF740FC18
:1028C00078B9E06A00EB80004A4951F8200040B92D
:1028D00094F82C10012088404049096881433F4802
:1028E0000160A06A18B104F11800FFF729FC211D4E
:1028F0003B48FFF7FFFBFFF7CDFA3F48006828B1E0
:10290000FFF7B9FAFFF70EFDFFF7C4FA3248006887
:10291000844217D13848006840B14FF080502C49AC
:102920000860BFF34F8FBFF36F8F0BE02C48006838
:1029300032490968884203D100202749086001E034
:10294000FFF78BFF70BD10B5014600200A46244CEE
:102950005369A34201D1012300E0002373B1284C45
:10296000936AA34201D1012300E0002333B9936AA3
:102970000BB9012300E0002303B1012010BD70B5A5
:1029800005462C46F4B31448006884424BD0FFF748
:1029900072FA2046FFF7D7FFA8B3201DFFF7D0FB40
:1029A00094F82C10012088400C49096808430B4911
:1029B0000860E16A01EB81010E4A02EB8100211DF2
:1029C000FFF798FB04491FE0640000206800002026
:1029D00004ED00E058000020440000205C000020CE
:1029E000384500204C0000204800002074000020E2
:1029F0007C0000208444002060000020540000205F
:102A0000104500200FE00CE0E06A0968C96A8842BE
:102A100007D34FF08050FE490860BFF34F8FBFF3DC
:102A20006F8FFFF737FA70BD2DE9F041064600279A
:102A3000344600BFBF21EFF3118081F31188BFF34B
:102A40004F8FBFF36F8F00BF05462046FFF77BFF18
:102A500020B3F0480068E0B9EF49E06A0968C96A44
:102A6000884200D30127201DFFF76AFB94F82C1041
:102A700001208840E94909680843E8490860E16A9B
:102A800001EB8101E64A02EB8100211DFFF732FBD9
:102A900004E004F11801E348FFF72CFB00BF85F3C5
:102AA000118800BF3846BDE8F08170B523E0FFF71C
:102AB000EDFDDD48006808B9012000E00020054672
:102AC000FFF718FDBDB9FFF7D6F9D748C068C4684D
:102AD000201DFFF735FBD5480068401ED34908602C
:102AE000D3480068401ED2490860FFF7D3F920465A
:102AF000FFF72DFC00BFCE4800680028D7D170BD7D
:102B000000BFFFF7D2FFC64800680128F9D94FF08F
:102B10008050BF490860BFF34F8FBFF36F8FF0E75E
:102B20001CB5C44800210B468022CDE90010C2A18B
:102B3000C348FFF7C7FB0446012C14D100BFBF20D8
:102B400080F31188BFF34F8FBFF36F8F00BF4FF03B
:102B5000FF30BC4908600120BB4908600020BB4928
:102B60000860FFF772F91CBD10B500BFBF2080F3ED
:102B70001188BFF34F8FBFF36F8F00BF0020B249A2
:102B80000860FFF777F910BDB04908687047002169
:102B9000AE4A10687047A54800687047014611B9F1
:102BA0009D48006800E00846024602F13400704784
:102BB00070B505460C469848016818312846FFF75D
:102BC000A5FA01212046FFF723FD70BD70B506462A
:102BD0000C46154644F000408F49096888618E48CC
:102BE000016818313046FFF785FA01212846FFF7C2
:102BF0000FFD70BD70B50646F068C46804F118009A
:102C0000FFF79EFA83480068A8B9201DFFF798FADD
:102C100094F82C10012088408049096808437F49B6
:102C20000860E16A01EB81017D4A02EB8100211D10
:102C3000FFF760FA04E004F118017A48FFF75AFA46
:102C40007549E06A0968C96A884204D901250120EA
:102C50007F49086000E00025284670BD2DE9F0415D
:102C600005460F4647F000402860EC682846FFF70D
:102C700067FA201DFFF764FA94F82C1001208840B1
:102C800066490968084365490860E16A01EB81010A
:102C9000634A02EB8100211DFFF72CFA5E49E06ACE
:102CA0000968C96A884204D9012601206849086078
:102CB00000E000263046BDE8F08166490968016001
:102CC000624909684160704770B504460D46FFF7D8
:102CD000D2F85E4802682868401C08B9002619E04E
:102CE0005C4920680968884204D06068904201D835
:102CF00001260FE06068101A2968884209D2286806
:102D00006168511A401A28602046FFF7D6FF002656
:102D100000E00126FFF7BEF8304670BD01204C49A7
:102D2000086070473C49096888693B490968C96A75
:102D3000C1F10501384A12689161704770B50646C5
:102D40000D46FFF798F834480068406C88B90120B8
:102D50003149096881F848005DB101212846FFF733
:102D600057FC4FF080502A490860BFF34F8FBFF3E4
:102D70006F8FFFF78FF8FFF77EF827480068446CE5
:102D80004CB126B1002024490968486403E0601E64
:102D900021490968486400201F49096881F84800F2
:102DA000FFF778F8204670BD2DE9F04107468846C8
:102DB00014461D46FFF75FF81748006890F8480072
:102DC000022818D01449096801F14400496CB9433C
:102DD000016001201049096881F848005DB10121B6
:102DE0002846FFF715FC4FF0805009490860BFF3F3
:102DF0004F8FBFF36F8FFFF74DF8FFF73CF81CB113
:102E000005480068406C20600348006824E000002A
:102E100004ED00E07C000020440000205C00002065
:102E20008444002010450020244500205400002048
:102E3000500000207800002049444C45000000006C
:102E4000012B0008740000206000002058000020C2
:102E5000680000206C00002090F84800012801D193
:102E6000002608E0A149096801F14400496C21EA03
:102E700008010160012600209C49096881F848008A
:102E8000FFF708F83046BDE8F0812DE9F0478146AC
:102E90000D4616461F464FF0010A4C46FEF7EBFF63
:102EA0000FB1606C386094F84880022084F84800C4
:102EB000052E17D2DFE806F01503070B0D00606C36
:102EC000284360640EE0606C401C60640AE0656446
:102ED00008E0B8F1020F01D0656401E04FF0000A8C
:102EE00000E000BF00BFB8F1010F22D1201DFFF7A5
:102EF00027F994F82C10012088407D49096808437F
:102F00007B490860E16A01EB81017A4A02EB8100AA
:102F1000211DFFF7EFF87549E06A0968C96A884220
:102F200007D94FF0805074490860BFF34F8FBFF34B
:102F30006F8FFEF7AFFF5046BDE8F0872DE9F84FE1
:102F400082460D4616461F46DDF828B00120009047
:102F5000544600BFBF21EFF3118081F31188BFF306
:102F60004F8FBFF36F8F00BF81460FB1606C386029
:102F700094F84880022084F84800052E17D2DFE834
:102F800006F01503070B0D00606C284360640EE02B
:102F9000606C401C60640AE0656408E0B8F1020FF0
:102FA00001D0656401E00020009000E000BF00BF98
:102FB000B8F1010F2DD151480068A8B9201DFFF7C5
:102FC000BFF894F82C10012088404949096808434B
:102FD00047490860E16A01EB8101464A02EB810042
:102FE000211DFFF787F804E004F118014448FFF7BA
:102FF00081F83E49E06A0968C96A884209D9BBF18B
:10300000000F03D00120CBF8000002E001203D4971
:10301000086000BF89F3118800BF0098BDE8F88FF1
:103020002DE9F04105460E462C4600BFBF21EFF3C7
:10303000118081F31188BFF34F8FBFF36F8F00BFF3
:10304000074694F84880022084F84800606C401CD1
:103050006064B8F1010F2AD128480068A8B9201D82
:10306000FFF76EF894F82C10012088402049096879
:1030700008431F490860E16A01EB81011D4A02EB28
:103080008100211DFFF736F804E004F118011C4807
:10309000FFF730F81549E06A0968C96A884206D91D
:1030A00016B10120306002E001201649086000BF1F
:1030B00087F3118800BFBDE8F08170B5054615B9EA
:1030C0000A48006800E028460646FEF7D4FE96F857
:1030D0004800022804D1002086F84800012400E0BE
:1030E0000024FEF7D7FE204670BD000044000020FB
:1030F0005C0000208444002004ED00E07C000020FF
:1031000010450020680000202DE9F05F05460020F2
:1031100092469B4688460646814640241BE0284648
:1031200041464746224600F042F853465A46C01AE6
:10313000914110D311461846224600F029F82D1A65
:1031400067EB01084F4622460120002100F020F8DD
:1031500017EB00094E41201EA4F10104DFDC4846B4
:1031600031462A464346BDE8F09F0000064C074D15
:1031700006E0E06840F0010394E807009847103447
:10318000AC42F6D3FCF7B6FFE83C0008083D000867
:10319000202A04DB203A00FA02F100207047914017
:1031A000C2F1200320FA03F3194390407047202A0C
:1031B00004DB203A21FA02F00021704721FA02F3E1
:1031C000D040C2F1200291400843194670470000E8
:1031D0000FB4054B10B503A9044A029800F018F883
:1031E00010BC5DF814FB0000D71800088000002018
:1031F00002E008C8121F08C1002AFAD170477047C0
:10320000002001E001C1121F002AFBD1704700001D
:103210002DE9FF4F8DB09B460F460446002606E081
:1032200025280BD05A460F999047641C761C2078AD
:103230000028F5D111B03046BDE8F08F0025A84632
:103240000122984900E0054314F8013F203B02FAAF
:1032500003F00842F7D120782E2817D114F8010F77
:1032600045F004052A280ED06FF02F022078A0F137
:10327000300109290AD808EB880102EB410100EB73
:103280000108641CF2E757F8048B641C20786C2852
:103290000DD004DC4C2812D06A2811D104E0742827
:1032A0000DD07A280CD10AE045F4001507E06178CA
:1032B00045F48015814202D1641C05F58015641C1B
:1032C0002078692844D008DC0028B3D0582867D07B
:1032D00063280FD0642808D13AE0702865D073289D
:1032E00012D075285AD078285AD05A460F9990474C
:1032F000761CD5E017F8040B8DF8000000208DF83F
:103300000100E946012003E057F8049B4FF0FF302D
:1033100069074FF0000501D40AE06D1C45450DDA40
:103320008542FADB19F805100029F6D106E06D1C7C
:103330008542FCDB19F805100029F8D12E4404E081
:1033400019F8010B5A460F9990476D1EF8D2A7E065
:103350000A200021CDE90801C5F3025002280CD053
:1033600001CFC117021E71F100020CDA0023D0EB6D
:10337000030063EB01012D2208E0FF1D27F0070782
:10338000F7E80201EEE72A0504D52B228DF8282064
:1033900001223CE0EA073AD02022F7E70A2000E0C9
:1033A00010200021CDE9080107E01020002145F0A0
:1033B0000405CDE908014FF00808C5F302500228C2
:1033C00010D001CF00214FF0000A2A0720D5227823
:1033D000702A0DD0DDE908C38CF0100C5CEA030CF8
:1033E0000CD015E0FF1D27F00707F7E80201EAE718
:1033F00040228DF828204FF0010A0CE050EA01032A
:1034000006D030238DF828308DF8292002229246EC
:103410002278582A04D024A20DF120090B9209E049
:1034200026A2F9E7DDE90823FFF76EFE0B9B9B5C04
:1034300009F8013D50EA0102F4D1ADEB090020305A
:103440000890680701D44FF001080899884503DD0A
:103450000898A8EB000000E000208046002506E068
:103460000AA85A46405D0F9990476D1C761C554539
:10347000F6DB04E030205A460F999047761CB8F1ED
:103480000001A8F10108F5DC05E019F8010B5A4626
:103490000F999047761C0899481E08900029F4DC83
:1034A000641CC4E609280100303132333435363724
:1034B0003839616263646566000000003031323380
:1034C0003435363738394142434445460000000020
:1034D0000000000000000000002F000000000700B6
:1034E000070000147F147F1400242A7F2A12006230
:1034F00064081323003649552250000005030000DC
:1035000000001C224100000041221C000014083E63
:1035100008140008083E0808000000A06000000829
:10352000080808080000606000000020100804027D
:10353000003E5149453E0000427F4000004261513B
:103540004946002141454B31001814127F100027D5
:1035500045454539003C4A49493000017109050398
:1035600000364949493600064949291E00003636C9
:10357000000000005636000000081422410000142C
:103580001414141400004122140800020151090609
:1035900000324959513E007C1211127C007F49498A
:1035A0004936003E41414122007F4141221C007FBB
:1035B00049494941007F09090901003E4149497AC9
:1035C000007F0808087F0000417F41000020404143
:1035D0003F01007F08142241007F40404040007FAF
:1035E000020C027F007F0408107F003E4141413EF3
:1035F000007F09090906003E4151215E007F09193B
:1036000029460046494949310001017F0101003F37
:103610004040403F001F2040201F003F4038403FB7
:10362000006314081463000708700807006151491B
:10363000454300007F41410000552A552A550000AE
:1036400041417F000004020102040040404040402C
:10365000000001020400002054545478007F4844C4
:10366000443800384444442000384444487F0038FB
:103670005454541800087E0901020018A4A4A47C24
:10368000007F080404780000447D400000408084EE
:103690007D00007F102844000000417F4000007C36
:1036A00004180478007C0804047800384444443842
:1036B00000FC242424180018242418FC007C08048E
:1036C000040800485454542000043F444020003C67
:1036D0004040207C001C2040201C003C4030403CEE
:1036E000004428102844001CA0A0A07C004464547E
:1036F0004C441414141414140000000000000000C2
:103700000000000000000000000000F800000000C1
:10371000000000333000000000100C06100C060002
:10372000000000000000000040C07840C078400069
:10373000043F04043F040400007088FC08300000CB
:10374000001820FF211E0000F008F000E018000023
:1037500000211C031E211E0000F0088870000000DC
:103760001E2123241927211010160E00000000002E
:103770000000000000000000000000E0180402004B
:10378000000000071820400000020418E0000000BC
:103790000040201807000000404080F080404000BA
:1037A0000202010F01020200000000F00000000010
:1037B0000101011F010101000000000000000000E4
:1037C00080B0700000000000000000000000000059
:1037D00000010101010101010000000000000000E2
:1037E000003030000000000000000000806018047D
:1037F000006018060100000000E010080810E0005A
:10380000000F102020100F00001010F80000000022
:103810000020203F20200000007008080888700069
:1038200000302824222130000030088888483000E9
:103830000018202020110E000000C02010F8000009
:1038400000070424243F240000F8088888080800A2
:103850000019212020110E0000E0108888180000B7
:10386000000F112020110E0000380808C838080089
:103870000000003F00000000007088080888700009
:10388000001C222121221C0000E010080810E0008A
:103890000000312222110F00000000C0C000000013
:1038A0000000003030000000000000800000000038
:1038B0000000806000000000000080402010080030
:1038C00000010204081020004040404040404000F9
:1038D00004040404040404000008102040800000D4
:1038E0000020100804020100007048080808F000D9
:1038F0000000003036010000C030C828E810E000A9
:103900000718272423140B000000C038E000000033
:10391000203C23020227382008F88888887000009D
:10392000203F202020110E00C03008080808380071
:10393000071820202010080008F808080810E000E8
:10394000203F202020100F0008F88888E808100089
:10395000203F20202320180008F88888E80810005D
:10396000203F200003000000C03008080838000095
:1039700007182020221E020008F808000008F80896
:10398000203F210101213F20000808F8080800001D
:103990000020203F2020000000000808F808080050
:1039A000C08080807F00000008F888C028180800C8
:1039B000203F20012638200008F808000000000001
:1039C000203F20202020300008F8F800F8F80800F8
:1039D000203F003F003F200008F830C00008F808F2
:1039E000203F200007183F00E01008080810E00002
:1039F0000F10202020100F0008F808080808F00019
:103A0000203F210101010000E01008080810E0003B
:103A10000F18242438504F0008F8888888887000D0
:103A2000203F2000030C3020007088080808380070
:103A30000038202121221C00180808F80808180066
:103A40000000203F2000000008F808000008F808E7
:103A5000001F202020201F000878880000C8380898
:103A6000000007380E010000F80800F80008F80010
:103A7000033C0700073C03000818688080681808AA
:103A800020302C03032C30200838C800C838080028
:103A90000000203F2000000010080808C838080077
:103AA0002038262120201800000000FE020202001B
:103AB0000000007F40404000000C30C000000000CB
:103AC000000000010638C00000020202FE000000F3
:103AD000004040407F000000000004020202040099
:103AE00000000000000000000000000000000000D6
:103AF00080808080808080800002020400000000BE
:103B000000000000000000000000808080800000B5
:103B10000019242222223F2008F8008080000000A3
:103B2000003F112020110E00000000808080000066
:103B3000000E112020201100000000808088F80075
:103B4000000E112020103F200000808080800000A7
:103B5000001F222222221300008080F0888888180B
:103B60000020203F20200000000080808080800016
:103B7000006B94949493600008F8008080800000AB
:103B8000203F210000203F20008098980000000086
:103B90000020203F202000000000008098980000B6
:103BA00000C08080807F000008F8000080808000D6
:103BB000203F24022D302000000808F800000000FB
:103BC0000020203F202000008080808080808000B6
:103BD000203F20003F20003F808000808080000048
:103BE000203F210000203F200000808080800000D6
:103BF000001F202020201F00808000808000000007
:103C000080FFA12020110E00000000808080800035
:103C1000000E112020A0FF80808080008080800026
:103C200020203F2120000100000080808080800053
:103C30000033242424241900008080E080800000C8
:103C40000000001F20200000808000000080800015
:103C5000001F202020103F20808080000080808076
:103C600000010E3008060100808000800080808006
:103C70000F300C030C300F0000808000808080002B
:103C80000020312E0E312000808080000080808056
:103C900080818E7018060100008080808080800006
:103CA0000021302C2221300000000000807C020224
:103CB00000000000003F404000000000FF00000046
:103CC00000000000FF0000000002027C80000000F5
:103CD0000040403F00000000000601010202040411
:103CE0000000000000000000083D00080000002067
:103CF00084000000F03100088C3D000884000020A2
:103D0000CC4800000032000800A24A040000000075
:103D1000000000000102030406070809000000007B
:103D2000010203040102030406070809020406084D
:103D3000AAAAAAAA000000000000000000000000DB
:103D40000000000000000000000000000000000073
:103D50000000000000000000000000000000000063
:103D60000000000000000000000000000000000053
:103D70000000000000000000000000000000000043
:0C3D800000000000000000000000000037
:04000005080000ED02
:00000001FF
